{
  "transactions": [
    {
      "hash": "0xe1dff2abb450a60e367b8a652152b28fb0c81ffc1d5d148cf779cb9f060568da",
      "transactionType": "CREATE2",
      "contractName": "Demo3",
      "contractAddress": "0xf78db0421b3ebe6662aaf4d5c17d1eaf8e3e1239",
      "function": null,
      "arguments": null,
      "transaction": {
        "from": "0xf39fd6e51aad88f6f4ce6ab8827279cfffb92266",
        "to": "0x4e59b44847b379578588920ca78fbf26c0b4956c",
        "gas": "0x5f205",
        "value": "0x0",
        "input": "0x00000000000000000000000000000000000000000000000000000000000000006080604052348015600e575f5ffd5b506103d78061001c5f395ff3fe608060405234801561000f575f5ffd5b5060043610610055575f3560e01c8063013c5f391461005957806319822f7c14610063578063b0d691fe14610089578063e2b6c0bc146100b3578063fc9c8d39146100c5575b5f5ffd5b6100616100d8565b005b610076610071366004610308565b610123565b6040519081526020015b60405180910390f35b6f71727de22e5e9d8baf0edac6f37da0325b6040516001600160a01b039091168152602001610080565b5f5461009b906001600160a01b031681565b60015461009b906001600160a01b031681565b5f546001600160a01b03166101005760405163d92e233d60e01b815260040160405180910390fd5b5f54600180546001600160a01b0319166001600160a01b03909216919091179055565b5f336f71727de22e5e9d8baf0edac6f37da03214610154576040516306facdbd60e21b815260040160405180910390fd5b815f610184856020527b19457468657265756d205369676e6564204d6573736167653a0a33325f52603c60042090565b90505f6101d2826101996101008a018a610357565b8080601f0160208091040260200160405190810160405280939291908181526020018383808284375f9201919091525061027c92505050565b9050602087013560401c806001600160a01b03808416908216146101fd576001955050505050610264565b6001600160a01b03831673f39fd6e51aad88f6f4ce6ab8827279cfffb922660361024b575f80546001600160a01b0319166001600160a01b0392909216919091178155945061026492505050565b604051632057875960e21b815260040160405180910390fd5b8015610274575f385f3884335af1505b509392505050565b5f60405182516040811461029857604181146102b957506102f4565b604084015160ff81901c601b016020526001600160ff1b03166060526102cc565b60608401515f1a60205260408401516060525b50835f5260208301516040526020600160805f60015afa5191505f606052806040523d610301575b638baa579f5f526004601cfd5b5092915050565b5f5f5f6060848603121561031a575f5ffd5b833567ffffffffffffffff811115610330575f5ffd5b84016101208187031215610342575f5ffd5b95602085013595506040909401359392505050565b5f5f8335601e1984360301811261036c575f5ffd5b83018035915067ffffffffffffffff821115610386575f5ffd5b60200191503681900382131561039a575f5ffd5b925092905056fea2646970667358221220781ad761dd6ba84d0e0038a4be405ff56702a4e239fea2c7165be64a9f2fe38764736f6c634300081c0033",
        "nonce": "0x20e5",
        "chainId": "0xaa36a7"
      },
      "additionalContracts": [],
      "isFixedGasLimit": false
    },
    {
      "hash": "0x18ff5859bd54524fc186ac4fc8676c98c7db47a9098020f2cc303d3a946165c4",
      "transactionType": "CALL",
      "contractName": null,
      "contractAddress": "0x0000000071727de22e5e9d8baf0edac6f37da032",
      "function": "depositTo(address)",
      "arguments": [
        "0xf78DB0421B3eBe6662AAf4D5C17d1EAF8e3E1239"
      ],
      "transaction": {
        "from": "0xf39fd6e51aad88f6f4ce6ab8827279cfffb92266",
        "to": "0x0000000071727de22e5e9d8baf0edac6f37da032",
        "gas": "0xf606",
        "value": "0xde0b6b3a7640000",
        "input": "0xb760faf9000000000000000000000000f78db0421b3ebe6662aaf4d5c17d1eaf8e3e1239",
        "nonce": "0x20e6",
        "chainId": "0xaa36a7"
      },
      "additionalContracts": [],
      "isFixedGasLimit": false
    }
  ],
  "receipts": [
    {
      "status": "0x1",
      "cumulativeGasUsed": "0x410b3",
      "logs": [],
      "logsBloom": "0x00000000000000000000000000000000000000000000000000000000000000000000000000000000000000000000000000000000000000000000000000000000000000000000000000000000000000000000000000000000000000000000000000000000000000000000000000000000000000000000000000000000000000000000000000000000000000000000000000000000000000000000000000000000000000000000000000000000000000000000000000000000000000000000000000000000000000000000000000000000000000000000000000000000000000000000000000000000000000000000000000000000000000000000000000000000",
      "type": "0x2",
      "transactionHash": "0xe1dff2abb450a60e367b8a652152b28fb0c81ffc1d5d148cf779cb9f060568da",
      "transactionIndex": "0x0",
      "blockHash": "0xd7f1948fcd3031a85adaec86c6ee82fa334f884106c224428339bca1428e0905",
      "blockNumber": "0x5cfa58",
      "gasUsed": "0x410b3",
      "effectiveGasPrice": "0x3cbbc5640",
      "blobGasPrice": "0x1",
      "from": "0xf39fd6e51aad88f6f4ce6ab8827279cfffb92266",
      "to": "0x4e59b44847b379578588920ca78fbf26c0b4956c",
      "contractAddress": null,
      "root": "0x0000000000000000000000000000000000000000000000000000000000000000"
    },
    {
      "status": "0x1",
      "cumulativeGasUsed": "0xb21f",
      "logs": [
        {
          "address": "0x0000000071727de22e5e9d8baf0edac6f37da032",
          "topics": [
            "0x2da466a7b24304f47e87fa2e1e5a81b9831ce54fec19055ce277ca2f39ba42c4",
            "0x000000000000000000000000f78db0421b3ebe6662aaf4d5c17d1eaf8e3e1239"
          ],
          "data": "0x0000000000000000000000000000000000000000000000000de0b6b3a7640000",
          "blockHash": "0xd6ebd6f5e7b0ad5ece3a2d8a2bdba84972e5313fe62883eea5048cf6e7aef9bd",
          "blockNumber": "0x5cfa59",
          "blockTimestamp": "0x6669caec",
          "transactionHash": "0x18ff5859bd54524fc186ac4fc8676c98c7db47a9098020f2cc303d3a946165c4",
          "transactionIndex": "0x0",
          "logIndex": "0x0",
          "removed": false
        }
      ],
      "logsBloom": "0x00000000000000000000000000000000000000000000000000000000000000000000000000000000000000000000000000000000000000000000000000000000000000000000000000000000000000000040000000000000000000000000200000000000000800000000000000000000000000000000000000000000000200000000000000000000000000000000000000000100000000000000000000000000000000000000000000000000000000000000000000000000000000000000000000000000000000400000000000000000000000000000008000000000000000000040000000000000200000000000000000000000000000000000000000000000",
      "type": "0x2",
      "transactionHash": "0x18ff5859bd54524fc186ac4fc8676c98c7db47a9098020f2cc303d3a946165c4",
      "transactionIndex": "0x0",
      "blockHash": "0xd6ebd6f5e7b0ad5ece3a2d8a2bdba84972e5313fe62883eea5048cf6e7aef9bd",
      "blockNumber": "0x5cfa59",
      "gasUsed": "0xb21f",
      "effectiveGasPrice": "0x35bbe900f",
      "blobGasPrice": "0x1",
      "from": "0xf39fd6e51aad88f6f4ce6ab8827279cfffb92266",
      "to": "0x0000000071727de22e5e9d8baf0edac6f37da032",
      "contractAddress": null,
      "root": "0x0000000000000000000000000000000000000000000000000000000000000000"
    }
  ],
  "libraries": [],
  "pending": [],
  "returns": {},
  "timestamp": 1738568270,
  "chain": 11155111,
  "commit": "4d500c2"
}