{
  "transactions": [
    {
      "hash": "0x4137fbf3e0782dd99c31b4387f2941b4f2f34fac2e2562b1b9b1dad53c57f02a",
      "transactionType": "CREATE2",
      "contractName": "Demo3",
      "contractAddress": "0x72e6c5d59a5c6e6f58c1539b56f1caa0f1c18824",
      "function": null,
      "arguments": null,
      "transaction": {
        "from": "0xf39fd6e51aad88f6f4ce6ab8827279cfffb92266",
        "to": "0x4e59b44847b379578588920ca78fbf26c0b4956c",
        "gas": "0x6272b",
        "value": "0x0",
        "input": "0x00000000000000000000000000000000000000000000000000000000000000006080604052348015600e575f5ffd5b506104028061001c5f395ff3fe608060405234801561000f575f5ffd5b5060043610610055575f3560e01c8063013c5f391461005957806319822f7c14610063578063b0d691fe14610089578063e2b6c0bc146100b3578063fc9c8d39146100c5575b5f5ffd5b6100616100d8565b005b610076610071366004610333565b610143565b6040519081526020015b60405180910390f35b6f71727de22e5e9d8baf0edac6f37da0325b6040516001600160a01b039091168152602001610080565b5f5461009b906001600160a01b031681565b60015461009b906001600160a01b031681565b7ff30e21ec4256e7bcdea3cd539c9ea8e63d168c7223f65ecbb5ec52fc5a8870005c6001600160a01b0381166101215760405163d92e233d60e01b815260040160405180910390fd5b600180546001600160a01b0319166001600160a01b0392909216919091179055565b5f336f71727de22e5e9d8baf0edac6f37da03214610174576040516306facdbd60e21b815260040160405180910390fd5b815f6101a4856020527b19457468657265756d205369676e6564204d6573736167653a0a33325f52603c60042090565b90505f6101f2826101b96101008a018a610382565b8080601f0160208091040260200160405190810160405280939291908181526020018383808284375f920191909152506102a792505050565b9050602087013560401c806001600160a01b03811673f39fd6e51aad88f6f4ce6ab8827279cfffb922660361027657807ff30e21ec4256e7bcdea3cd539c9ea8e63d168c7223f65ecbb5ec52fc5a8870005d806001600160a01b0316836001600160a01b03161461026a57600195505050505061028f565b5f95505050505061028f565b604051632057875960e21b815260040160405180910390fd5b801561029f575f385f3884335af1505b509392505050565b5f6040518251604081146102c357604181146102e4575061031f565b604084015160ff81901c601b016020526001600160ff1b03166060526102f7565b60608401515f1a60205260408401516060525b50835f5260208301516040526020600160805f60015afa5191505f606052806040523d61032c575b638baa579f5f526004601cfd5b5092915050565b5f5f5f60608486031215610345575f5ffd5b833567ffffffffffffffff81111561035b575f5ffd5b8401610120818703121561036d575f5ffd5b95602085013595506040909401359392505050565b5f5f8335601e19843603018112610397575f5ffd5b83018035915067ffffffffffffffff8211156103b1575f5ffd5b6020019150368190038213156103c5575f5ffd5b925092905056fea26469706673582212201956dbf27ee93ae16965fc125b17b979088a2dcc001367fad2f8297d40958f6e64736f6c634300081c0033",
        "nonce": "0x20ec",
        "chainId": "0xaa36a7"
      },
      "additionalContracts": [],
      "isFixedGasLimit": false
    },
    {
      "hash": "0xf7570ede617319a78f67c44aca13d3c55862353133064bae1db49874b74d6243",
      "transactionType": "CALL",
      "contractName": null,
      "contractAddress": "0x0000000071727de22e5e9d8baf0edac6f37da032",
      "function": "depositTo(address)",
      "arguments": [
        "0x72E6C5D59A5c6e6F58C1539B56f1CAA0f1c18824"
      ],
      "transaction": {
        "from": "0xf39fd6e51aad88f6f4ce6ab8827279cfffb92266",
        "to": "0x0000000071727de22e5e9d8baf0edac6f37da032",
        "gas": "0xf606",
        "value": "0xde0b6b3a7640000",
        "input": "0xb760faf900000000000000000000000072e6c5d59a5c6e6f58c1539b56f1caa0f1c18824",
        "nonce": "0x20ed",
        "chainId": "0xaa36a7"
      },
      "additionalContracts": [],
      "isFixedGasLimit": false
    }
  ],
  "receipts": [
    {
      "status": "0x1",
      "cumulativeGasUsed": "0x4350a",
      "logs": [],
      "logsBloom": "0x00000000000000000000000000000000000000000000000000000000000000000000000000000000000000000000000000000000000000000000000000000000000000000000000000000000000000000000000000000000000000000000000000000000000000000000000000000000000000000000000000000000000000000000000000000000000000000000000000000000000000000000000000000000000000000000000000000000000000000000000000000000000000000000000000000000000000000000000000000000000000000000000000000000000000000000000000000000000000000000000000000000000000000000000000000000",
      "type": "0x2",
      "transactionHash": "0x4137fbf3e0782dd99c31b4387f2941b4f2f34fac2e2562b1b9b1dad53c57f02a",
      "transactionIndex": "0x0",
      "blockHash": "0xfeebe51e92844609e54faad722969834094bad35e2bcb05229132be08e0fdf85",
      "blockNumber": "0x5cfa5f",
      "gasUsed": "0x4350a",
      "effectiveGasPrice": "0x1a56c9a73",
      "blobGasPrice": "0x1",
      "from": "0xf39fd6e51aad88f6f4ce6ab8827279cfffb92266",
      "to": "0x4e59b44847b379578588920ca78fbf26c0b4956c",
      "contractAddress": null,
      "root": "0x0000000000000000000000000000000000000000000000000000000000000000"
    },
    {
      "status": "0x1",
      "cumulativeGasUsed": "0xb21f",
      "logs": [
        {
          "address": "0x0000000071727de22e5e9d8baf0edac6f37da032",
          "topics": [
            "0x2da466a7b24304f47e87fa2e1e5a81b9831ce54fec19055ce277ca2f39ba42c4",
            "0x00000000000000000000000072e6c5d59a5c6e6f58c1539b56f1caa0f1c18824"
          ],
          "data": "0x0000000000000000000000000000000000000000000000000de0b6b3a7640000",
          "blockHash": "0xae887f2636f803e32f018f399e6c00d4119b917ef586a3528240bf2894a555cd",
          "blockNumber": "0x5cfa60",
          "blockTimestamp": "0x6669d1f3",
          "transactionHash": "0xf7570ede617319a78f67c44aca13d3c55862353133064bae1db49874b74d6243",
          "transactionIndex": "0x0",
          "logIndex": "0x0",
          "removed": false
        }
      ],
      "logsBloom": "0x00000000000000000000000000000000000000000000000000000000000000000000000000000000000000000000000000000000000000000000000000000000000000000000000000000000000000000040000000000000000000000000200000000000000800000000000000000000000000000000000000000000000200000400000000000000000000000000000000000000000000000000000000000000000000000000000000000000000000000000000000000000000000000000000000000000000000400000000000000000000000000000000000000000000000000040000000000000000000000000000000000000000000008000000000000080",
      "type": "0x2",
      "transactionHash": "0xf7570ede617319a78f67c44aca13d3c55862353133064bae1db49874b74d6243",
      "transactionIndex": "0x0",
      "blockHash": "0xae887f2636f803e32f018f399e6c00d4119b917ef586a3528240bf2894a555cd",
      "blockNumber": "0x5cfa60",
      "gasUsed": "0xb21f",
      "effectiveGasPrice": "0x17907338b",
      "blobGasPrice": "0x1",
      "from": "0xf39fd6e51aad88f6f4ce6ab8827279cfffb92266",
      "to": "0x0000000071727de22e5e9d8baf0edac6f37da032",
      "contractAddress": null,
      "root": "0x0000000000000000000000000000000000000000000000000000000000000000"
    }
  ],
  "libraries": [],
  "pending": [],
  "returns": {},
  "timestamp": 1738570068,
  "chain": 11155111,
  "commit": "4d500c2"
}