{
  "transactions": [
    {
      "hash": "0x709a4498728753ed44307573afce336bd7e2def81e7e19697a9ae8066ab1f2c1",
      "transactionType": "CREATE2",
      "contractName": "Demo3",
      "contractAddress": "0xb9f16b588fb6a3c4894046dcbd733950a8a3c35a",
      "function": null,
      "arguments": null,
      "transaction": {
        "from": "0xf39fd6e51aad88f6f4ce6ab8827279cfffb92266",
        "to": "0x4e59b44847b379578588920ca78fbf26c0b4956c",
        "gas": "0x590b5",
        "value": "0x0",
        "input": "0x00000000000000000000000000000000000000000000000000000000000000006080604052348015600e575f5ffd5b506103cc8061001c5f395ff3fe608060405234801561000f575f5ffd5b5060043610610055575f3560e01c8063013c5f391461005957806319822f7c14610063578063b0d691fe14610089578063e2b6c0bc146100b3578063fc9c8d39146100c5575b5f5ffd5b6100616100d8565b005b6100766100713660046102fd565b610123565b6040519081526020015b60405180910390f35b6f71727de22e5e9d8baf0edac6f37da0325b6040516001600160a01b039091168152602001610080565b5f5461009b906001600160a01b031681565b60015461009b906001600160a01b031681565b5f546001600160a01b03166101005760405163d92e233d60e01b815260040160405180910390fd5b5f54600180546001600160a01b0319166001600160a01b03909216919091179055565b5f336f71727de22e5e9d8baf0edac6f37da03214610154576040516306facdbd60e21b815260040160405180910390fd5b815f610184856020527b19457468657265756d205369676e6564204d6573736167653a0a33325f52603c60042090565b90505f6101d2826101996101008a018a61034c565b8080601f0160208091040260200160405190810160405280939291908181526020018383808284375f9201919091525061027192505050565b9050602087013560401c806001600160a01b03811673f39fd6e51aad88f6f4ce6ab8827279cfffb9226603610240575f80546001600160a01b0319166001600160a01b0383811691821790925590841614610234576001955050505050610259565b5f955050505050610259565b604051632057875960e21b815260040160405180910390fd5b8015610269575f385f3884335af1505b509392505050565b5f60405182516040811461028d57604181146102ae57506102e9565b604084015160ff81901c601b016020526001600160ff1b03166060526102c1565b60608401515f1a60205260408401516060525b50835f5260208301516040526020600160805f60015afa5191505f606052806040523d6102f6575b638baa579f5f526004601cfd5b5092915050565b5f5f5f6060848603121561030f575f5ffd5b833567ffffffffffffffff811115610325575f5ffd5b84016101208187031215610337575f5ffd5b95602085013595506040909401359392505050565b5f5f8335601e19843603018112610361575f5ffd5b83018035915067ffffffffffffffff82111561037b575f5ffd5b60200191503681900382131561038f575f5ffd5b925092905056fea26469706673582212206c32be17f29fcbdfc1f301dd5201fc0d0b99f2119b4e3f5779793fa7fcfdba3d64736f6c634300081c0033",
        "nonce": "0x20e9",
        "chainId": "0xaa36a7"
      },
      "additionalContracts": [],
      "isFixedGasLimit": false
    },
    {
      "hash": "0x20579d72973c032a13babad96f6e88d95b681a9a078bb608f66e754835adb043",
      "transactionType": "CALL",
      "contractName": null,
      "contractAddress": "0x0000000071727de22e5e9d8baf0edac6f37da032",
      "function": "depositTo(address)",
      "arguments": [
        "0xB9f16b588FB6A3c4894046DcbD733950A8a3c35A"
      ],
      "transaction": {
        "from": "0xf39fd6e51aad88f6f4ce6ab8827279cfffb92266",
        "to": "0x0000000071727de22e5e9d8baf0edac6f37da032",
        "gas": "0xf606",
        "value": "0xde0b6b3a7640000",
        "input": "0xb760faf9000000000000000000000000b9f16b588fb6a3c4894046dcbd733950a8a3c35a",
        "nonce": "0x20ea",
        "chainId": "0xaa36a7"
      },
      "additionalContracts": [],
      "isFixedGasLimit": false
    }
  ],
  "receipts": [
    {
      "status": "0x1",
      "cumulativeGasUsed": "0x40777",
      "logs": [],
      "logsBloom": "0x00000000000000000000000000000000000000000000000000000000000000000000000000000000000000000000000000000000000000000000000000000000000000000000000000000000000000000000000000000000000000000000000000000000000000000000000000000000000000000000000000000000000000000000000000000000000000000000000000000000000000000000000000000000000000000000000000000000000000000000000000000000000000000000000000000000000000000000000000000000000000000000000000000000000000000000000000000000000000000000000000000000000000000000000000000000",
      "type": "0x2",
      "transactionHash": "0x709a4498728753ed44307573afce336bd7e2def81e7e19697a9ae8066ab1f2c1",
      "transactionIndex": "0x0",
      "blockHash": "0xf660ccdb53094608f7ed28ef0f83d7f9bec3ea530c89d67414d9fde1dc204d1a",
      "blockNumber": "0x5cfa5c",
      "gasUsed": "0x40777",
      "effectiveGasPrice": "0x255735bd0",
      "blobGasPrice": "0x1",
      "from": "0xf39fd6e51aad88f6f4ce6ab8827279cfffb92266",
      "to": "0x4e59b44847b379578588920ca78fbf26c0b4956c",
      "contractAddress": null,
      "root": "0x0000000000000000000000000000000000000000000000000000000000000000"
    },
    {
      "status": "0x1",
      "cumulativeGasUsed": "0xb21f",
      "logs": [
        {
          "address": "0x0000000071727de22e5e9d8baf0edac6f37da032",
          "topics": [
            "0x2da466a7b24304f47e87fa2e1e5a81b9831ce54fec19055ce277ca2f39ba42c4",
            "0x000000000000000000000000b9f16b588fb6a3c4894046dcbd733950a8a3c35a"
          ],
          "data": "0x0000000000000000000000000000000000000000000000000de0b6b3a7640000",
          "blockHash": "0xf6a206fa0fc7f99aab5406c6c55fcf2919638874a5e48b1767d2539f4a110f47",
          "blockNumber": "0x5cfa5d",
          "blockTimestamp": "0x6669d019",
          "transactionHash": "0x20579d72973c032a13babad96f6e88d95b681a9a078bb608f66e754835adb043",
          "transactionIndex": "0x0",
          "logIndex": "0x0",
          "removed": false
        }
      ],
      "logsBloom": "0x00000000000000000000000000000000000000000000000000000000000000000000000000000000000000000000000000000000000000000000000000000000000000000000000400000000000000000040000000000000000000000000200000000000000800000000000000000000000000000000000000000000000200000000000000000000000000000000000000000000000000000000000000000000000000000000000000000000000000000000000000000000000000000000000000000000000000400000000000000000000000000000000000000000000000000040000000000000000200000000000001000000000000000000000000000000",
      "type": "0x2",
      "transactionHash": "0x20579d72973c032a13babad96f6e88d95b681a9a078bb608f66e754835adb043",
      "transactionIndex": "0x0",
      "blockHash": "0xf6a206fa0fc7f99aab5406c6c55fcf2919638874a5e48b1767d2539f4a110f47",
      "blockNumber": "0x5cfa5d",
      "gasUsed": "0xb21f",
      "effectiveGasPrice": "0x2136743f2",
      "blobGasPrice": "0x1",
      "from": "0xf39fd6e51aad88f6f4ce6ab8827279cfffb92266",
      "to": "0x0000000071727de22e5e9d8baf0edac6f37da032",
      "contractAddress": null,
      "root": "0x0000000000000000000000000000000000000000000000000000000000000000"
    }
  ],
  "libraries": [],
  "pending": [],
  "returns": {},
  "timestamp": 1738569594,
  "chain": 11155111,
  "commit": "4d500c2"
}