{
  "transactions": [
    {
      "hash": "0x2304777db8ebed3fdb6104d4f7b2d016b8548327222814402f571eb001bd1e42",
      "transactionType": "CREATE2",
      "contractName": "Demo",
      "contractAddress": "0xfe12359fb1d6829fa7d316fb2cdfef8646a14e5b",
      "function": null,
      "arguments": null,
      "transaction": {
        "from": "0xf39fd6e51aad88f6f4ce6ab8827279cfffb92266",
        "to": "0x4e59b44847b379578588920ca78fbf26c0b4956c",
        "gas": "0x34726",
        "value": "0x0",
        "input": "0x00000000000000000000000000000000000000000000000000000000000000006080604052348015600e575f5ffd5b506101d78061001c5f395ff3fe608060405234801561000f575f5ffd5b5060043610610055575f3560e01c8063013c5f391461005957806319822f7c14610081578063b0d691fe146100a7578063e2b6c0bc146100d1578063fc9c8d39146100e3575b5f5ffd5b61007f5f54600180546001600160a01b0319166001600160a01b03909216919091179055565b005b61009461008f366004610152565b6100f6565b6040519081526020015b60405180910390f35b6f71727de22e5e9d8baf0edac6f37da0325b6040516001600160a01b03909116815260200161009e565b5f546100b9906001600160a01b031681565b6001546100b9906001600160a01b031681565b5f336f71727de22e5e9d8baf0edac6f37da03214610127576040516306facdbd60e21b815260040160405180910390fd5b505f80546001600160a01b0319163317815581801561014a575f385f3884335af1505b509392505050565b5f5f5f60608486031215610164575f5ffd5b833567ffffffffffffffff81111561017a575f5ffd5b8401610120818703121561018c575f5ffd5b9560208501359550604090940135939250505056fea2646970667358221220b479da7dfaa7f90dfb8c035ef43a8cd3b7cf80383e7f492005002269975b8da564736f6c634300081c0033",
        "nonce": "0x20e3",
        "chainId": "0xaa36a7"
      },
      "additionalContracts": [],
      "isFixedGasLimit": false
    },
    {
      "hash": "0x97ef2c1db6272cbfc19256f86ee28cf802116dfa754c01118d9b06c7df23015b",
      "transactionType": "CALL",
      "contractName": null,
      "contractAddress": "0x0000000071727de22e5e9d8baf0edac6f37da032",
      "function": "depositTo(address)",
      "arguments": [
        "0xFE12359Fb1d6829FA7D316FB2cdFEF8646a14E5b"
      ],
      "transaction": {
        "from": "0xf39fd6e51aad88f6f4ce6ab8827279cfffb92266",
        "to": "0x0000000071727de22e5e9d8baf0edac6f37da032",
        "gas": "0xf606",
        "value": "0xde0b6b3a7640000",
        "input": "0xb760faf9000000000000000000000000fe12359fb1d6829fa7d316fb2cdfef8646a14e5b",
        "nonce": "0x20e4",
        "chainId": "0xaa36a7"
      },
      "additionalContracts": [],
      "isFixedGasLimit": false
    }
  ],
  "receipts": [
    {
      "status": "0x1",
      "cumulativeGasUsed": "0x25f88",
      "logs": [],
      "logsBloom": "0x00000000000000000000000000000000000000000000000000000000000000000000000000000000000000000000000000000000000000000000000000000000000000000000000000000000000000000000000000000000000000000000000000000000000000000000000000000000000000000000000000000000000000000000000000000000000000000000000000000000000000000000000000000000000000000000000000000000000000000000000000000000000000000000000000000000000000000000000000000000000000000000000000000000000000000000000000000000000000000000000000000000000000000000000000000000",
      "type": "0x2",
      "transactionHash": "0x2304777db8ebed3fdb6104d4f7b2d016b8548327222814402f571eb001bd1e42",
      "transactionIndex": "0x0",
      "blockHash": "0x734847bf15aa2891a10a2b26c306922c31f8e2d683ac37a4e97b627c2b05af6a",
      "blockNumber": "0x5cfa56",
      "gasUsed": "0x25f88",
      "effectiveGasPrice": "0x4df93d44e",
      "blobGasPrice": "0x1",
      "from": "0xf39fd6e51aad88f6f4ce6ab8827279cfffb92266",
      "to": "0x4e59b44847b379578588920ca78fbf26c0b4956c",
      "contractAddress": null,
      "root": "0x0000000000000000000000000000000000000000000000000000000000000000"
    },
    {
      "status": "0x1",
      "cumulativeGasUsed": "0xb21f",
      "logs": [
        {
          "address": "0x0000000071727de22e5e9d8baf0edac6f37da032",
          "topics": [
            "0x2da466a7b24304f47e87fa2e1e5a81b9831ce54fec19055ce277ca2f39ba42c4",
            "0x000000000000000000000000fe12359fb1d6829fa7d316fb2cdfef8646a14e5b"
          ],
          "data": "0x0000000000000000000000000000000000000000000000000de0b6b3a7640000",
          "blockHash": "0xe508571b3a168c909bf9fc81e167b114bed4fabd3d10e10f2c397211a123f0f0",
          "blockNumber": "0x5cfa57",
          "blockTimestamp": "0x6669c7d2",
          "transactionHash": "0x97ef2c1db6272cbfc19256f86ee28cf802116dfa754c01118d9b06c7df23015b",
          "transactionIndex": "0x0",
          "logIndex": "0x0",
          "removed": false
        }
      ],
      "logsBloom": "0x00000000000000000000000000000000000000000000000000000000000000000000000000000000000000000000000000000000000000000000000000000000000000000000000000000000000000000040000000000000000000000000200000000000000800000000000000000000000000000000000000000000000200000000000000000000000000000000000000000000000000000000000000000000000000000000000000000000000000000000000000000000000000000000000000000000000000400000000000000000000000000000000000000080000000000040000000000000000200000000000000000000000000000000000000000000",
      "type": "0x2",
      "transactionHash": "0x97ef2c1db6272cbfc19256f86ee28cf802116dfa754c01118d9b06c7df23015b",
      "transactionIndex": "0x0",
      "blockHash": "0xe508571b3a168c909bf9fc81e167b114bed4fabd3d10e10f2c397211a123f0f0",
      "blockNumber": "0x5cfa57",
      "gasUsed": "0xb21f",
      "effectiveGasPrice": "0x44c9edc45",
      "blobGasPrice": "0x1",
      "from": "0xf39fd6e51aad88f6f4ce6ab8827279cfffb92266",
      "to": "0x0000000071727de22e5e9d8baf0edac6f37da032",
      "contractAddress": null,
      "root": "0x0000000000000000000000000000000000000000000000000000000000000000"
    }
  ],
  "libraries": [],
  "pending": [],
  "returns": {},
  "timestamp": 1737869784,
  "chain": 11155111,
  "commit": "a727163"
}