{
  "transactions": [
    {
      "hash": "0x450218907297cd3819a887c66ba50476059b47e6c78f6935498da3391a02e99b",
      "transactionType": "CREATE2",
      "contractName": "Demo",
      "contractAddress": "0xb525f121c05b0a9fb520445974fb9c0c29aec356",
      "function": null,
      "arguments": null,
      "transaction": {
        "from": "0xf39fd6e51aad88f6f4ce6ab8827279cfffb92266",
        "to": "0x4e59b44847b379578588920ca78fbf26c0b4956c",
        "gas": "0x3d11a",
        "value": "0x0",
        "input": "0x00000000000000000000000000000000000000000000000000000000000000006080604052348015600e575f5ffd5b5061024d8061001c5f395ff3fe608060405234801561000f575f5ffd5b5060043610610055575f3560e01c8063013c5f391461005957806319822f7c14610063578063b0d691fe14610089578063e2b6c0bc146100b3578063fc9c8d39146100c5575b5f5ffd5b6100616100d8565b005b61007661007136600461019b565b610123565b6040519081526020015b60405180910390f35b6f71727de22e5e9d8baf0edac6f37da0325b6040516001600160a01b039091168152602001610080565b5f5461009b906001600160a01b031681565b60015461009b906001600160a01b031681565b5f546001600160a01b03166101005760405163d92e233d60e01b815260040160405180910390fd5b5f54600180546001600160a01b0319166001600160a01b03909216919091179055565b5f336f71727de22e5e9d8baf0edac6f37da03214610154576040516306facdbd60e21b815260040160405180910390fd5b8161016260208601866101ea565b5f80546001600160a01b0319166001600160a01b039290921691909117815591508015610193575f385f3884335af1505b509392505050565b5f5f5f606084860312156101ad575f5ffd5b833567ffffffffffffffff8111156101c3575f5ffd5b840161012081870312156101d5575f5ffd5b95602085013595506040909401359392505050565b5f602082840312156101fa575f5ffd5b81356001600160a01b0381168114610210575f5ffd5b939250505056fea26469706673582212201977a6633a9b179d5827650f53fd5ee5d0474f6610d4f5f35e0b30cc37e2ee3364736f6c634300081c0033",
        "nonce": "0x20e5",
        "chainId": "0xaa36a7"
      },
      "additionalContracts": [],
      "isFixedGasLimit": false
    },
    {
      "hash": "0x2c64121bfcb28931663cd9c45835886f02d353baaaf6e5304fc0d1d45fb94acf",
      "transactionType": "CALL",
      "contractName": null,
      "contractAddress": "0x0000000071727de22e5e9d8baf0edac6f37da032",
      "function": "depositTo(address)",
      "arguments": [
        "0xb525f121c05B0A9fb520445974Fb9C0c29aEc356"
      ],
      "transaction": {
        "from": "0xf39fd6e51aad88f6f4ce6ab8827279cfffb92266",
        "to": "0x0000000071727de22e5e9d8baf0edac6f37da032",
        "gas": "0xf606",
        "value": "0xde0b6b3a7640000",
        "input": "0xb760faf9000000000000000000000000b525f121c05b0a9fb520445974fb9c0c29aec356",
        "nonce": "0x20e6",
        "chainId": "0xaa36a7"
      },
      "additionalContracts": [],
      "isFixedGasLimit": false
    }
  ],
  "receipts": [
    {
      "status": "0x1",
      "cumulativeGasUsed": "0x2c368",
      "logs": [],
      "logsBloom": "0x00000000000000000000000000000000000000000000000000000000000000000000000000000000000000000000000000000000000000000000000000000000000000000000000000000000000000000000000000000000000000000000000000000000000000000000000000000000000000000000000000000000000000000000000000000000000000000000000000000000000000000000000000000000000000000000000000000000000000000000000000000000000000000000000000000000000000000000000000000000000000000000000000000000000000000000000000000000000000000000000000000000000000000000000000000000",
      "type": "0x2",
      "transactionHash": "0x450218907297cd3819a887c66ba50476059b47e6c78f6935498da3391a02e99b",
      "transactionIndex": "0x0",
      "blockHash": "0x6843e219f8c2ab5268e56a695d064c69c4d185cdbb4126a98d33f53ed928fb0a",
      "blockNumber": "0x5cfa58",
      "gasUsed": "0x2c368",
      "effectiveGasPrice": "0x3cbbc5640",
      "blobGasPrice": "0x1",
      "from": "0xf39fd6e51aad88f6f4ce6ab8827279cfffb92266",
      "to": "0x4e59b44847b379578588920ca78fbf26c0b4956c",
      "contractAddress": null,
      "root": "0x0000000000000000000000000000000000000000000000000000000000000000"
    },
    {
      "status": "0x1",
      "cumulativeGasUsed": "0xb21f",
      "logs": [
        {
          "address": "0x0000000071727de22e5e9d8baf0edac6f37da032",
          "topics": [
            "0x2da466a7b24304f47e87fa2e1e5a81b9831ce54fec19055ce277ca2f39ba42c4",
            "0x000000000000000000000000b525f121c05b0a9fb520445974fb9c0c29aec356"
          ],
          "data": "0x0000000000000000000000000000000000000000000000000de0b6b3a7640000",
          "blockHash": "0x1c682388dd5d432ab23d246f50d7096091338a078de3428b4c9449ffc48dbc68",
          "blockNumber": "0x5cfa59",
          "blockTimestamp": "0x6669c78e",
          "transactionHash": "0x2c64121bfcb28931663cd9c45835886f02d353baaaf6e5304fc0d1d45fb94acf",
          "transactionIndex": "0x0",
          "logIndex": "0x0",
          "removed": false
        }
      ],
      "logsBloom": "0x00000000000000040000000000000000000000000000000000000000000000000000004000000000000000000000000000000000000000000000000000000000000000000000000000000000000000000040000000000000000000000000200000000000000800000000000000000000000000000000000000000000000200000000000000000000200000000000000000000000000000000000000000000000000000000000000000000000000000000000000000000000000000000000000000000000000000400000000000000000000000000000000000000000000000000040000000000000000000000000000000000000000000000000000000000000",
      "type": "0x2",
      "transactionHash": "0x2c64121bfcb28931663cd9c45835886f02d353baaaf6e5304fc0d1d45fb94acf",
      "transactionIndex": "0x0",
      "blockHash": "0x1c682388dd5d432ab23d246f50d7096091338a078de3428b4c9449ffc48dbc68",
      "blockNumber": "0x5cfa59",
      "gasUsed": "0xb21f",
      "effectiveGasPrice": "0x35b1888d1",
      "blobGasPrice": "0x1",
      "from": "0xf39fd6e51aad88f6f4ce6ab8827279cfffb92266",
      "to": "0x0000000071727de22e5e9d8baf0edac6f37da032",
      "contractAddress": null,
      "root": "0x0000000000000000000000000000000000000000000000000000000000000000"
    }
  ],
  "libraries": [],
  "pending": [],
  "returns": {},
  "timestamp": 1737896904,
  "chain": 11155111,
  "commit": "b0c1882"
}