{
  "transactions": [
    {
      "hash": "0x2cc3b2cc5edbd3ffecb3f8e055d13b2fa1e45246036f4b067597c76f78e6bf83",
      "transactionType": "CREATE2",
      "contractName": "Demo",
      "contractAddress": "0xa985bcf8f46eb7a68a0e9406d6b7cae2805f2101",
      "function": null,
      "arguments": null,
      "transaction": {
        "from": "0xf39fd6e51aad88f6f4ce6ab8827279cfffb92266",
        "to": "0x4e59b44847b379578588920ca78fbf26c0b4956c",
        "gas": "0x3b030",
        "value": "0x0",
        "input": "0x00000000000000000000000000000000000000000000000000000000000000006080604052348015600e575f5ffd5b506102048061001c5f395ff3fe608060405234801561000f575f5ffd5b5060043610610055575f3560e01c8063013c5f391461005957806319822f7c14610063578063b0d691fe14610089578063e2b6c0bc146100b3578063fc9c8d39146100c5575b5f5ffd5b6100616100d8565b005b61007661007136600461017f565b610123565b6040519081526020015b60405180910390f35b6f71727de22e5e9d8baf0edac6f37da0325b6040516001600160a01b039091168152602001610080565b5f5461009b906001600160a01b031681565b60015461009b906001600160a01b031681565b5f546001600160a01b03166101005760405163d92e233d60e01b815260040160405180910390fd5b5f54600180546001600160a01b0319166001600160a01b03909216919091179055565b5f336f71727de22e5e9d8baf0edac6f37da03214610154576040516306facdbd60e21b815260040160405180910390fd5b505f80546001600160a01b03191633178155818015610177575f385f3884335af1505b509392505050565b5f5f5f60608486031215610191575f5ffd5b833567ffffffffffffffff8111156101a7575f5ffd5b840161012081870312156101b9575f5ffd5b9560208501359550604090940135939250505056fea26469706673582212202b3a1707c28923518bfd25214829dc9386678037bd66d178b64871f61c71873764736f6c634300081c0033",
        "nonce": "0x20e4",
        "chainId": "0xaa36a7"
      },
      "additionalContracts": [],
      "isFixedGasLimit": false
    },
    {
      "hash": "0xa12f658cdd65d9f3093254c3be56b2c582512119dd99c36ac8e31bbade657e64",
      "transactionType": "CALL",
      "contractName": null,
      "contractAddress": "0x0000000071727de22e5e9d8baf0edac6f37da032",
      "function": "depositTo(address)",
      "arguments": [
        "0xa985BcF8F46EB7A68a0e9406d6B7CAE2805f2101"
      ],
      "transaction": {
        "from": "0xf39fd6e51aad88f6f4ce6ab8827279cfffb92266",
        "to": "0x0000000071727de22e5e9d8baf0edac6f37da032",
        "gas": "0xa2cf",
        "value": "0xde0b6b3a7640000",
        "input": "0xb760faf9000000000000000000000000a985bcf8f46eb7a68a0e9406d6b7cae2805f2101",
        "nonce": "0x20e5",
        "chainId": "0xaa36a7"
      },
      "additionalContracts": [],
      "isFixedGasLimit": false
    }
  ],
  "receipts": [
    {
      "status": "0x1",
      "cumulativeGasUsed": "0x2859a",
      "logs": [],
      "logsBloom": "0x00000000000000000000000000000000000000000000000000000000000000000000000000000000000000000000000000000000000000000000000000000000000000000000000000000000000000000000000000000000000000000000000000000000000000000000000000000000000000000000000000000000000000000000000000000000000000000000000000000000000000000000000000000000000000000000000000000000000000000000000000000000000000000000000000000000000000000000000000000000000000000000000000000000000000000000000000000000000000000000000000000000000000000000000000000000",
      "type": "0x2",
      "transactionHash": "0x2cc3b2cc5edbd3ffecb3f8e055d13b2fa1e45246036f4b067597c76f78e6bf83",
      "transactionIndex": "0x0",
      "blockHash": "0x0e0f79243fae6e22b5d36a73dd70ed379503478d6e1189a069fbac8b3743d046",
      "blockNumber": "0x5cfa57",
      "gasUsed": "0x2859a",
      "effectiveGasPrice": "0x44b884344",
      "blobGasPrice": "0x1",
      "from": "0xf39fd6e51aad88f6f4ce6ab8827279cfffb92266",
      "to": "0x4e59b44847b379578588920ca78fbf26c0b4956c",
      "contractAddress": null,
      "root": "0x0000000000000000000000000000000000000000000000000000000000000000"
    },
    {
      "status": "0x1",
      "cumulativeGasUsed": "0x6f53",
      "logs": [
        {
          "address": "0x0000000071727de22e5e9d8baf0edac6f37da032",
          "topics": [
            "0x2da466a7b24304f47e87fa2e1e5a81b9831ce54fec19055ce277ca2f39ba42c4",
            "0x000000000000000000000000a985bcf8f46eb7a68a0e9406d6b7cae2805f2101"
          ],
          "data": "0x0000000000000000000000000000000000000000000000001bc16d674ec80000",
          "blockHash": "0x4e3d8c9197ada6924c2faa7f19531ea36401337c09c8450490bf67d902bf94a4",
          "blockNumber": "0x5cfa58",
          "blockTimestamp": "0x6669c77f",
          "transactionHash": "0xa12f658cdd65d9f3093254c3be56b2c582512119dd99c36ac8e31bbade657e64",
          "transactionIndex": "0x0",
          "logIndex": "0x0",
          "removed": false
        }
      ],
      "logsBloom": "0x00000000000000000000000000000000000080000000000000000000000000000000000000000000000000000000000000000000000000000000000000000000000000000000000000000000000000000040000000000000000000000000200000000000000800000000000000000000000000000000000000000000000200000000000000000002000000000000000000200000000000000000000000000000000000000000000000000000000000000000000000000000000000000000000000000000000000400000000000000000000000000000000000000000000000000040000000000000000000000000000000000000000000000000000000000000",
      "type": "0x2",
      "transactionHash": "0xa12f658cdd65d9f3093254c3be56b2c582512119dd99c36ac8e31bbade657e64",
      "transactionIndex": "0x0",
      "blockHash": "0x4e3d8c9197ada6924c2faa7f19531ea36401337c09c8450490bf67d902bf94a4",
      "blockNumber": "0x5cfa58",
      "gasUsed": "0x6f53",
      "effectiveGasPrice": "0x3caf93daf",
      "blobGasPrice": "0x1",
      "from": "0xf39fd6e51aad88f6f4ce6ab8827279cfffb92266",
      "to": "0x0000000071727de22e5e9d8baf0edac6f37da032",
      "contractAddress": null,
      "root": "0x0000000000000000000000000000000000000000000000000000000000000000"
    }
  ],
  "libraries": [],
  "pending": [],
  "returns": {},
  "timestamp": 1737870353,
  "chain": 11155111,
  "commit": "a727163"
}