{
  "transactions": [
    {
      "hash": null,
      "transactionType": "CREATE2",
      "contractName": "Demo",
      "contractAddress": "0xa985bcf8f46eb7a68a0e9406d6b7cae2805f2101",
      "function": null,
      "arguments": null,
      "transaction": {
        "from": "0xf39fd6e51aad88f6f4ce6ab8827279cfffb92266",
        "to": "0x4e59b44847b379578588920ca78fbf26c0b4956c",
        "gas": "0x3b030",
        "value": "0x0",
        "input": "0x00000000000000000000000000000000000000000000000000000000000000006080604052348015600e575f5ffd5b506102048061001c5f395ff3fe608060405234801561000f575f5ffd5b5060043610610055575f3560e01c8063013c5f391461005957806319822f7c14610063578063b0d691fe14610089578063e2b6c0bc146100b3578063fc9c8d39146100c5575b5f5ffd5b6100616100d8565b005b61007661007136600461017f565b610123565b6040519081526020015b60405180910390f35b6f71727de22e5e9d8baf0edac6f37da0325b6040516001600160a01b039091168152602001610080565b5f5461009b906001600160a01b031681565b60015461009b906001600160a01b031681565b5f546001600160a01b03166101005760405163d92e233d60e01b815260040160405180910390fd5b5f54600180546001600160a01b0319166001600160a01b03909216919091179055565b5f336f71727de22e5e9d8baf0edac6f37da03214610154576040516306facdbd60e21b815260040160405180910390fd5b505f80546001600160a01b03191633178155818015610177575f385f3884335af1505b509392505050565b5f5f5f60608486031215610191575f5ffd5b833567ffffffffffffffff8111156101a7575f5ffd5b840161012081870312156101b9575f5ffd5b9560208501359550604090940135939250505056fea26469706673582212202b3a1707c28923518bfd25214829dc9386678037bd66d178b64871f61c71873764736f6c634300081c0033",
        "nonce": "0x20e2",
        "chainId": "0xaa36a7"
      },
      "additionalContracts": [],
      "isFixedGasLimit": false
    },
    {
      "hash": null,
      "transactionType": "CALL",
      "contractName": null,
      "contractAddress": "0x0000000071727de22e5e9d8baf0edac6f37da032",
      "function": "depositTo(address)",
      "arguments": [
        "0xa985BcF8F46EB7A68a0e9406d6B7CAE2805f2101"
      ],
      "transaction": {
        "from": "0xf39fd6e51aad88f6f4ce6ab8827279cfffb92266",
        "to": "0x0000000071727de22e5e9d8baf0edac6f37da032",
        "gas": "0xf606",
        "value": "0xde0b6b3a7640000",
        "input": "0xb760faf9000000000000000000000000a985bcf8f46eb7a68a0e9406d6b7cae2805f2101",
        "nonce": "0x20e3",
        "chainId": "0xaa36a7"
      },
      "additionalContracts": [],
      "isFixedGasLimit": false
    }
  ],
  "receipts": [],
  "libraries": [],
  "pending": [],
  "returns": {},
  "timestamp": 1737870339,
  "chain": 11155111,
  "commit": "a727163"
}