{
  "transactions": [
    {
      "hash": "0x6aa96daa57b40ee4d58bbf4d1b53d6163bc354edcaa4083544f4525e84eee23b",
      "transactionType": "CREATE2",
      "contractName": "Demo2",
      "contractAddress": "0x54b9b1773a016ccffc435b4e450b53bbee80c0da",
      "function": null,
      "arguments": null,
      "transaction": {
        "from": "0xf39fd6e51aad88f6f4ce6ab8827279cfffb92266",
        "to": "0x4e59b44847b379578588920ca78fbf26c0b4956c",
        "gas": "0x5db63",
        "value": "0x0",
        "input": "0x00000000000000000000000000000000000000000000000000000000000000006080604052348015600e575f5ffd5b5061040c8061001c5f395ff3fe608060405234801561000f575f5ffd5b5060043610610055575f3560e01c8063013c5f391461005957806319822f7c14610063578063b0d691fe14610089578063e2b6c0bc146100b3578063fc9c8d39146100c5575b5f5ffd5b6100616100d8565b005b61007661007136600461033d565b610163565b6040519081526020015b60405180910390f35b6f71727de22e5e9d8baf0edac6f37da0325b6040516001600160a01b039091168152602001610080565b5f5461009b906001600160a01b031681565b60015461009b906001600160a01b031681565b7f41a2efc794119f946ab405955f96dacdfa298d25a3ae81c9a8cc1dea5771a900546001600160a01b03166101205760405163d92e233d60e01b815260040160405180910390fd5b7f41a2efc794119f946ab405955f96dacdfa298d25a3ae81c9a8cc1dea5771a90054600180546001600160a01b0319166001600160a01b03909216919091179055565b5f336f71727de22e5e9d8baf0edac6f37da03214610194576040516306facdbd60e21b815260040160405180910390fd5b815f6101c4856020527b19457468657265756d205369676e6564204d6573736167653a0a33325f52603c60042090565b90505f610212826101d96101008a018a61038c565b8080601f0160208091040260200160405190810160405280939291908181526020018383808284375f920191909152506102b192505050565b90506001600160a01b03811673f39fd6e51aad88f6f4ce6ab8827279cfffb9226603610280577f41a2efc794119f946ab405955f96dacdfa298d25a3ae81c9a8cc1dea5771a90080546001600160a01b0319166001600160a01b0392909216919091179055505f9150610299565b604051632057875960e21b815260040160405180910390fd5b80156102a9575f385f3884335af1505b509392505050565b5f6040518251604081146102cd57604181146102ee5750610329565b604084015160ff81901c601b016020526001600160ff1b0316606052610301565b60608401515f1a60205260408401516060525b50835f5260208301516040526020600160805f60015afa5191505f606052806040523d610336575b638baa579f5f526004601cfd5b5092915050565b5f5f5f6060848603121561034f575f5ffd5b833567ffffffffffffffff811115610365575f5ffd5b84016101208187031215610377575f5ffd5b95602085013595506040909401359392505050565b5f5f8335601e198436030181126103a1575f5ffd5b83018035915067ffffffffffffffff8211156103bb575f5ffd5b6020019150368190038213156103cf575f5ffd5b925092905056fea26469706673582212209f3364069e0cc7cd9218586e58a48885da0e2e96549320c5902748e569b25cd664736f6c634300081c0033",
        "nonce": "0x20e8",
        "chainId": "0xaa36a7"
      },
      "additionalContracts": [],
      "isFixedGasLimit": false
    },
    {
      "hash": "0xb088a5af7fa41fa9f9b80ef01a63ff925e8ba0c376d667268ac727620973ef5a",
      "transactionType": "CALL",
      "contractName": null,
      "contractAddress": "0x0000000071727de22e5e9d8baf0edac6f37da032",
      "function": "depositTo(address)",
      "arguments": [
        "0x54b9b1773a016ccfFC435b4E450b53BbEe80c0DA"
      ],
      "transaction": {
        "from": "0xf39fd6e51aad88f6f4ce6ab8827279cfffb92266",
        "to": "0x0000000071727de22e5e9d8baf0edac6f37da032",
        "gas": "0xf606",
        "value": "0xde0b6b3a7640000",
        "input": "0xb760faf900000000000000000000000054b9b1773a016ccffc435b4e450b53bbee80c0da",
        "nonce": "0x20e9",
        "chainId": "0xaa36a7"
      },
      "additionalContracts": [],
      "isFixedGasLimit": false
    }
  ],
  "receipts": [
    {
      "status": "0x1",
      "cumulativeGasUsed": "0x43d88",
      "logs": [],
      "logsBloom": "0x00000000000000000000000000000000000000000000000000000000000000000000000000000000000000000000000000000000000000000000000000000000000000000000000000000000000000000000000000000000000000000000000000000000000000000000000000000000000000000000000000000000000000000000000000000000000000000000000000000000000000000000000000000000000000000000000000000000000000000000000000000000000000000000000000000000000000000000000000000000000000000000000000000000000000000000000000000000000000000000000000000000000000000000000000000000",
      "type": "0x2",
      "transactionHash": "0x6aa96daa57b40ee4d58bbf4d1b53d6163bc354edcaa4083544f4525e84eee23b",
      "transactionIndex": "0x0",
      "blockHash": "0xac55a413ea90d6026807ab56bf137c862bc4e7cd7a2e05c2aa199d31af86d030",
      "blockNumber": "0x5cfa5b",
      "gasUsed": "0x43d88",
      "effectiveGasPrice": "0x2a165447c",
      "blobGasPrice": "0x1",
      "from": "0xf39fd6e51aad88f6f4ce6ab8827279cfffb92266",
      "to": "0x4e59b44847b379578588920ca78fbf26c0b4956c",
      "contractAddress": null,
      "root": "0x0000000000000000000000000000000000000000000000000000000000000000"
    },
    {
      "status": "0x1",
      "cumulativeGasUsed": "0xb21f",
      "logs": [
        {
          "address": "0x0000000071727de22e5e9d8baf0edac6f37da032",
          "topics": [
            "0x2da466a7b24304f47e87fa2e1e5a81b9831ce54fec19055ce277ca2f39ba42c4",
            "0x00000000000000000000000054b9b1773a016ccffc435b4e450b53bbee80c0da"
          ],
          "data": "0x0000000000000000000000000000000000000000000000000de0b6b3a7640000",
          "blockHash": "0xe6f59fbfeff161915eed76d8518fd2513e9a5354660cfbb09d2b88bec908f56f",
          "blockNumber": "0x5cfa5c",
          "blockTimestamp": "0x6669c882",
          "transactionHash": "0xb088a5af7fa41fa9f9b80ef01a63ff925e8ba0c376d667268ac727620973ef5a",
          "transactionIndex": "0x0",
          "logIndex": "0x0",
          "removed": false
        }
      ],
      "logsBloom": "0x00000000000000000000000000000000000000000000000000000000010000000000000000000000000000000000000000000000000000000020000000000000000000000000000000000000000000000040000000000000000000000000200000000000000800000000000000000000000000000000000000000000000200000000000000000000000000000000000000000000000000000000000000000000000000000000000000000000000000000000000000000000000000100000000000000000000000400000000000000000000000000000000000000000000000000040000000000000000000000000000000000000000000000000000000000000",
      "type": "0x2",
      "transactionHash": "0xb088a5af7fa41fa9f9b80ef01a63ff925e8ba0c376d667268ac727620973ef5a",
      "transactionIndex": "0x0",
      "blockHash": "0xe6f59fbfeff161915eed76d8518fd2513e9a5354660cfbb09d2b88bec908f56f",
      "blockNumber": "0x5cfa5c",
      "gasUsed": "0xb21f",
      "effectiveGasPrice": "0x25617d72a",
      "blobGasPrice": "0x1",
      "from": "0xf39fd6e51aad88f6f4ce6ab8827279cfffb92266",
      "to": "0x0000000071727de22e5e9d8baf0edac6f37da032",
      "contractAddress": null,
      "root": "0x0000000000000000000000000000000000000000000000000000000000000000"
    }
  ],
  "libraries": [],
  "pending": [],
  "returns": {},
  "timestamp": 1737896208,
  "chain": 11155111,
  "commit": "b0c1882"
}