{
  "transactions": [
    {
      "hash": "0x084b70e8d4faac03dc7e22913514c3fcb8d35ca193f3a0e75637895d12e69fe7",
      "transactionType": "CREATE2",
      "contractName": "Demo2",
      "contractAddress": "0x845f429d4a693b9ca88de9aae57973ad7238781b",
      "function": null,
      "arguments": null,
      "transaction": {
        "from": "0xf39fd6e51aad88f6f4ce6ab8827279cfffb92266",
        "to": "0x4e59b44847b379578588920ca78fbf26c0b4956c",
        "gas": "0x5a683",
        "value": "0x0",
        "input": "0x00000000000000000000000000000000000000000000000000000000000000006080604052348015600e575f5ffd5b5061039a8061001c5f395ff3fe608060405234801561000f575f5ffd5b5060043610610055575f3560e01c8063013c5f391461005957806319822f7c14610063578063b0d691fe14610089578063e2b6c0bc146100b3578063fc9c8d39146100c5575b5f5ffd5b6100616100d8565b005b6100766100713660046102cb565b610123565b6040519081526020015b60405180910390f35b6f71727de22e5e9d8baf0edac6f37da0325b6040516001600160a01b039091168152602001610080565b5f5461009b906001600160a01b031681565b60015461009b906001600160a01b031681565b5f546001600160a01b03166101005760405163d92e233d60e01b815260040160405180910390fd5b5f54600180546001600160a01b0319166001600160a01b03909216919091179055565b5f336f71727de22e5e9d8baf0edac6f37da03214610154576040516306facdbd60e21b815260040160405180910390fd5b815f610184856020527b19457468657265756d205369676e6564204d6573736167653a0a33325f52603c60042090565b90505f6101d2826101996101008a018a61031a565b8080601f0160208091040260200160405190810160405280939291908181526020018383808284375f9201919091525061023f92505050565b90506001600160a01b03811673f39fd6e51aad88f6f4ce6ab8827279cfffb9226603610220575f80546001600160a01b0319166001600160a01b039290921691909117815592506102279050565b6001935050505b8015610237575f385f3884335af1505b509392505050565b5f60405182516040811461025b576041811461027c57506102b7565b604084015160ff81901c601b016020526001600160ff1b031660605261028f565b60608401515f1a60205260408401516060525b50835f5260208301516040526020600160805f60015afa5191505f606052806040523d6102c4575b638baa579f5f526004601cfd5b5092915050565b5f5f5f606084860312156102dd575f5ffd5b833567ffffffffffffffff8111156102f3575f5ffd5b84016101208187031215610305575f5ffd5b95602085013595506040909401359392505050565b5f5f8335601e1984360301811261032f575f5ffd5b83018035915067ffffffffffffffff821115610349575f5ffd5b60200191503681900382131561035d575f5ffd5b925092905056fea26469706673582212204736258541ede27fda4c8a1d05003bbf67d2ae2004ad1c0fe2785d4ccbcaf68164736f6c634300081c0033",
        "nonce": "0x20f2",
        "chainId": "0xaa36a7"
      },
      "additionalContracts": [],
      "isFixedGasLimit": false
    },
    {
      "hash": "0x70259cf3ebe35ce6a1ad11c9d3e84fc6d8ca6344dbcbcd6cedccc9402fbc94f6",
      "transactionType": "CALL",
      "contractName": null,
      "contractAddress": "0x0000000071727de22e5e9d8baf0edac6f37da032",
      "function": "depositTo(address)",
      "arguments": [
        "0x845f429D4a693b9ca88dE9AaE57973AD7238781b"
      ],
      "transaction": {
        "from": "0xf39fd6e51aad88f6f4ce6ab8827279cfffb92266",
        "to": "0x0000000071727de22e5e9d8baf0edac6f37da032",
        "gas": "0xf606",
        "value": "0xde0b6b3a7640000",
        "input": "0xb760faf9000000000000000000000000845f429d4a693b9ca88de9aae57973ad7238781b",
        "nonce": "0x20f3",
        "chainId": "0xaa36a7"
      },
      "additionalContracts": [],
      "isFixedGasLimit": false
    }
  ],
  "receipts": [
    {
      "status": "0x1",
      "cumulativeGasUsed": "0x3dd12",
      "logs": [],
      "logsBloom": "0x00000000000000000000000000000000000000000000000000000000000000000000000000000000000000000000000000000000000000000000000000000000000000000000000000000000000000000000000000000000000000000000000000000000000000000000000000000000000000000000000000000000000000000000000000000000000000000000000000000000000000000000000000000000000000000000000000000000000000000000000000000000000000000000000000000000000000000000000000000000000000000000000000000000000000000000000000000000000000000000000000000000000000000000000000000000",
      "type": "0x2",
      "transactionHash": "0x084b70e8d4faac03dc7e22913514c3fcb8d35ca193f3a0e75637895d12e69fe7",
      "transactionIndex": "0x0",
      "blockHash": "0x0a3a24bff30a8968d090438e7424e12a02a4509138015546bf67bb803181859f",
      "blockNumber": "0x5cfa67",
      "gasUsed": "0x3dd12",
      "effectiveGasPrice": "0xb958fa06",
      "blobGasPrice": "0x1",
      "from": "0xf39fd6e51aad88f6f4ce6ab8827279cfffb92266",
      "to": "0x4e59b44847b379578588920ca78fbf26c0b4956c",
      "contractAddress": null,
      "root": "0x0000000000000000000000000000000000000000000000000000000000000000"
    },
    {
      "status": "0x1",
      "cumulativeGasUsed": "0xb21f",
      "logs": [
        {
          "address": "0x0000000071727de22e5e9d8baf0edac6f37da032",
          "topics": [
            "0x2da466a7b24304f47e87fa2e1e5a81b9831ce54fec19055ce277ca2f39ba42c4",
            "0x000000000000000000000000845f429d4a693b9ca88de9aae57973ad7238781b"
          ],
          "data": "0x0000000000000000000000000000000000000000000000000de0b6b3a7640000",
          "blockHash": "0xd11fe43bc25bc57bb1642c7cb9a3db4760613f4ec9e0de2258e97a86904920c1",
          "blockNumber": "0x5cfa68",
          "blockTimestamp": "0x6669ca67",
          "transactionHash": "0x70259cf3ebe35ce6a1ad11c9d3e84fc6d8ca6344dbcbcd6cedccc9402fbc94f6",
          "transactionIndex": "0x0",
          "logIndex": "0x0",
          "removed": false
        }
      ],
      "logsBloom": "0x00000000000000000000000000000000000000000000000000000000000000000000000000000000000000000000000000000000000000000000000000000000000000000000000000000000000000000040000000000000000000000000200000000000000800000000000000000000000000000000000000000000000200000000000000000000000000800000000000000000000000000000000000000000000000000000000000000000000000000000000000000000000000000000000000000000000000400000000000000000000000000000000000000000000000000040040400000000000000000000000000000000000000000000000000000000",
      "type": "0x2",
      "transactionHash": "0x70259cf3ebe35ce6a1ad11c9d3e84fc6d8ca6344dbcbcd6cedccc9402fbc94f6",
      "transactionIndex": "0x0",
      "blockHash": "0xd11fe43bc25bc57bb1642c7cb9a3db4760613f4ec9e0de2258e97a86904920c1",
      "blockNumber": "0x5cfa68",
      "gasUsed": "0xb21f",
      "effectiveGasPrice": "0xa9e52003",
      "blobGasPrice": "0x1",
      "from": "0xf39fd6e51aad88f6f4ce6ab8827279cfffb92266",
      "to": "0x0000000071727de22e5e9d8baf0edac6f37da032",
      "contractAddress": null,
      "root": "0x0000000000000000000000000000000000000000000000000000000000000000"
    }
  ],
  "libraries": [],
  "pending": [],
  "returns": {},
  "timestamp": 1737896693,
  "chain": 11155111,
  "commit": "b0c1882"
}