{
  "transactions": [
    {
      "hash": "0x15577bf1555b0a63cf7c75ccc66712ed18b0b6632f109c8e9e5d8fde6d5434df",
      "transactionType": "CREATE2",
      "contractName": "Demo2",
      "contractAddress": "0xf66941d1090d6608fdea42fb4d5571d697f2b081",
      "function": null,
      "arguments": null,
      "transaction": {
        "from": "0xf39fd6e51aad88f6f4ce6ab8827279cfffb92266",
        "to": "0x4e59b44847b379578588920ca78fbf26c0b4956c",
        "gas": "0x5c64d",
        "value": "0x0",
        "input": "0x00000000000000000000000000000000000000000000000000000000000000006080604052348015600e575f5ffd5b506103fa8061001c5f395ff3fe608060405234801561000f575f5ffd5b5060043610610055575f3560e01c8063013c5f391461005957806319822f7c14610063578063b0d691fe14610089578063e2b6c0bc146100b3578063fc9c8d39146100c5575b5f5ffd5b6100616100d8565b005b61007661007136600461032b565b610163565b6040519081526020015b60405180910390f35b6f71727de22e5e9d8baf0edac6f37da0325b6040516001600160a01b039091168152602001610080565b5f5461009b906001600160a01b031681565b60015461009b906001600160a01b031681565b7f41a2efc794119f946ab405955f96dacdfa298d25a3ae81c9a8cc1dea5771a900546001600160a01b03166101205760405163d92e233d60e01b815260040160405180910390fd5b7f41a2efc794119f946ab405955f96dacdfa298d25a3ae81c9a8cc1dea5771a90054600180546001600160a01b0319166001600160a01b03909216919091179055565b5f336f71727de22e5e9d8baf0edac6f37da03214610194576040516306facdbd60e21b815260040160405180910390fd5b815f6101c4856020527b19457468657265756d205369676e6564204d6573736167653a0a33325f52603c60042090565b90505f610212826101d96101008a018a61037a565b8080601f0160208091040260200160405190810160405280939291908181526020018383808284375f9201919091525061029f92505050565b905073f39fd6e51aad88f6f4ce6ab8827279cfffb922666001600160a01b0382161461024357600193505050610287565b7f41a2efc794119f946ab405955f96dacdfa298d25a3ae81c9a8cc1dea5771a90080546001600160a01b0319166001600160a01b0392909216919091179055505f91505b8015610297575f385f3884335af1505b509392505050565b5f6040518251604081146102bb57604181146102dc5750610317565b604084015160ff81901c601b016020526001600160ff1b03166060526102ef565b60608401515f1a60205260408401516060525b50835f5260208301516040526020600160805f60015afa5191505f606052806040523d610324575b638baa579f5f526004601cfd5b5092915050565b5f5f5f6060848603121561033d575f5ffd5b833567ffffffffffffffff811115610353575f5ffd5b84016101208187031215610365575f5ffd5b95602085013595506040909401359392505050565b5f5f8335601e1984360301811261038f575f5ffd5b83018035915067ffffffffffffffff8211156103a9575f5ffd5b6020019150368190038213156103bd575f5ffd5b925092905056fea2646970667358221220db4187f98016b66c8058d57b8e770792c99255b4b04d3149bb2fcdd6b3e4454f64736f6c634300081c0033",
        "nonce": "0x20ed",
        "chainId": "0xaa36a7"
      },
      "additionalContracts": [],
      "isFixedGasLimit": false
    },
    {
      "hash": "0x3c38b9c4fa89fa28bf45c1971b02e7342dc394e7022bed9c27e881731250982a",
      "transactionType": "CALL",
      "contractName": null,
      "contractAddress": "0x0000000071727de22e5e9d8baf0edac6f37da032",
      "function": "depositTo(address)",
      "arguments": [
        "0xf66941d1090D6608Fdea42fB4D5571d697F2b081"
      ],
      "transaction": {
        "from": "0xf39fd6e51aad88f6f4ce6ab8827279cfffb92266",
        "to": "0x0000000071727de22e5e9d8baf0edac6f37da032",
        "gas": "0xf606",
        "value": "0xde0b6b3a7640000",
        "input": "0xb760faf9000000000000000000000000f66941d1090d6608fdea42fb4d5571d697f2b081",
        "nonce": "0x20ee",
        "chainId": "0xaa36a7"
      },
      "additionalContracts": [],
      "isFixedGasLimit": false
    }
  ],
  "receipts": [
    {
      "status": "0x1",
      "cumulativeGasUsed": "0x42e44",
      "logs": [],
      "logsBloom": "0x00000000000000000000000000000000000000000000000000000000000000000000000000000000000000000000000000000000000000000000000000000000000000000000000000000000000000000000000000000000000000000000000000000000000000000000000000000000000000000000000000000000000000000000000000000000000000000000000000000000000000000000000000000000000000000000000000000000000000000000000000000000000000000000000000000000000000000000000000000000000000000000000000000000000000000000000000000000000000000000000000000000000000000000000000000000",
      "type": "0x2",
      "transactionHash": "0x15577bf1555b0a63cf7c75ccc66712ed18b0b6632f109c8e9e5d8fde6d5434df",
      "transactionIndex": "0x0",
      "blockHash": "0x5fb695963ff1865ec36fced03ba54b49c78308fb81a24fa71d8fba7eaf939bc3",
      "blockNumber": "0x5cfa6a",
      "gasUsed": "0x42e44",
      "effectiveGasPrice": "0x8f685c0d",
      "blobGasPrice": "0x1",
      "from": "0xf39fd6e51aad88f6f4ce6ab8827279cfffb92266",
      "to": "0x4e59b44847b379578588920ca78fbf26c0b4956c",
      "contractAddress": null,
      "root": "0x0000000000000000000000000000000000000000000000000000000000000000"
    },
    {
      "status": "0x1",
      "cumulativeGasUsed": "0xb21f",
      "logs": [
        {
          "address": "0x0000000071727de22e5e9d8baf0edac6f37da032",
          "topics": [
            "0x2da466a7b24304f47e87fa2e1e5a81b9831ce54fec19055ce277ca2f39ba42c4",
            "0x000000000000000000000000f66941d1090d6608fdea42fb4d5571d697f2b081"
          ],
          "data": "0x0000000000000000000000000000000000000000000000000de0b6b3a7640000",
          "blockHash": "0xe066c39ee7e82cc8e7b4c0f96ce0cb8c651431c6f5b1fa8f097659fc9a0ba5af",
          "blockNumber": "0x5cfa6b",
          "blockTimestamp": "0x6669cfe3",
          "transactionHash": "0x3c38b9c4fa89fa28bf45c1971b02e7342dc394e7022bed9c27e881731250982a",
          "transactionIndex": "0x0",
          "logIndex": "0x0",
          "removed": false
        }
      ],
      "logsBloom": "0x00000000000000000000000080000000000000000000000000800000000000000000000000000000000000000000000000000000000000000000000000000000000000000000000000000000000000000040000000000000000000000000200000000040000800000000000000000000000000000000000000000000000200000000000000000000000000000000000000000000000000000000000000000000000000000000000000000000000000000000000000000000000000000000000000000000000000400000000000000000000000000000000000000000000000000040000000000000000000000000000000000000000000000000000000000000",
      "type": "0x2",
      "transactionHash": "0x3c38b9c4fa89fa28bf45c1971b02e7342dc394e7022bed9c27e881731250982a",
      "transactionIndex": "0x0",
      "blockHash": "0xe066c39ee7e82cc8e7b4c0f96ce0cb8c651431c6f5b1fa8f097659fc9a0ba5af",
      "blockNumber": "0x5cfa6b",
      "gasUsed": "0xb21f",
      "effectiveGasPrice": "0x851fa593",
      "blobGasPrice": "0x1",
      "from": "0xf39fd6e51aad88f6f4ce6ab8827279cfffb92266",
      "to": "0x0000000071727de22e5e9d8baf0edac6f37da032",
      "contractAddress": null,
      "root": "0x0000000000000000000000000000000000000000000000000000000000000000"
    }
  ],
  "libraries": [],
  "pending": [],
  "returns": {},
  "timestamp": 1737895801,
  "chain": 11155111,
  "commit": "b0c1882"
}