{
  "transactions": [
    {
      "hash": "0x76becc4ff7aeff644c4654fa693745e6084a3791f3b87b53a56b88787bc2e8d1",
      "transactionType": "CREATE2",
      "contractName": "Demo2",
      "contractAddress": "0x89439d0d4f12442318a614336096dd1d1c75533f",
      "function": null,
      "arguments": null,
      "transaction": {
        "from": "0xf39fd6e51aad88f6f4ce6ab8827279cfffb92266",
        "to": "0x4e59b44847b379578588920ca78fbf26c0b4956c",
        "gas": "0x5d590",
        "value": "0x0",
        "input": "0x00000000000000000000000000000000000000000000000000000000000000006080604052348015600e575f5ffd5b506104078061001c5f395ff3fe608060405234801561000f575f5ffd5b5060043610610055575f3560e01c8063013c5f391461005957806319822f7c14610063578063b0d691fe14610089578063e2b6c0bc146100b3578063fc9c8d39146100c5575b5f5ffd5b6100616100d8565b005b610076610071366004610338565b610163565b6040519081526020015b60405180910390f35b6f71727de22e5e9d8baf0edac6f37da0325b6040516001600160a01b039091168152602001610080565b5f5461009b906001600160a01b031681565b60015461009b906001600160a01b031681565b7f41a2efc794119f946ab405955f96dacdfa298d25a3ae81c9a8cc1dea5771a900546001600160a01b03166101205760405163d92e233d60e01b815260040160405180910390fd5b7f41a2efc794119f946ab405955f96dacdfa298d25a3ae81c9a8cc1dea5771a90054600180546001600160a01b0319166001600160a01b03909216919091179055565b5f336f71727de22e5e9d8baf0edac6f37da03214610194576040516306facdbd60e21b815260040160405180910390fd5b815f6101c4856020527b19457468657265756d205369676e6564204d6573736167653a0a33325f52603c60042090565b90505f610212826101d96101008a018a610387565b8080601f0160208091040260200160405190810160405280939291908181526020018383808284375f920191909152506102ac92505050565b905073f39fd6e51aad88f6f4ce6ab8827279cfffb922666001600160a01b0382161461025157604051632057875960e21b815260040160405180910390fd5b7f41a2efc794119f946ab405955f96dacdfa298d25a3ae81c9a8cc1dea5771a90080546001600160a01b0319166001600160a01b0392909216919091179055505f915080156102a4575f385f3884335af1505b509392505050565b5f6040518251604081146102c857604181146102e95750610324565b604084015160ff81901c601b016020526001600160ff1b03166060526102fc565b60608401515f1a60205260408401516060525b50835f5260208301516040526020600160805f60015afa5191505f606052806040523d610331575b638baa579f5f526004601cfd5b5092915050565b5f5f5f6060848603121561034a575f5ffd5b833567ffffffffffffffff811115610360575f5ffd5b84016101208187031215610372575f5ffd5b95602085013595506040909401359392505050565b5f5f8335601e1984360301811261039c575f5ffd5b83018035915067ffffffffffffffff8211156103b6575f5ffd5b6020019150368190038213156103ca575f5ffd5b925092905056fea26469706673582212201f4abd346466af8a29dbc505d88f5051853cddaabc6afa0fd49c06c928f3252b64736f6c634300081c0033",
        "nonce": "0x20e6",
        "chainId": "0xaa36a7"
      },
      "additionalContracts": [],
      "isFixedGasLimit": false
    },
    {
      "hash": "0xa67af46d284cbd209293a86cf6c0b4f98a27f4829448e2b3b79ef5027e2e4ddd",
      "transactionType": "CALL",
      "contractName": null,
      "contractAddress": "0x0000000071727de22e5e9d8baf0edac6f37da032",
      "function": "depositTo(address)",
      "arguments": [
        "0x89439D0D4f12442318a614336096dD1d1c75533f"
      ],
      "transaction": {
        "from": "0xf39fd6e51aad88f6f4ce6ab8827279cfffb92266",
        "to": "0x0000000071727de22e5e9d8baf0edac6f37da032",
        "gas": "0xf606",
        "value": "0xde0b6b3a7640000",
        "input": "0xb760faf900000000000000000000000089439d0d4f12442318a614336096dd1d1c75533f",
        "nonce": "0x20e7",
        "chainId": "0xaa36a7"
      },
      "additionalContracts": [],
      "isFixedGasLimit": false
    }
  ],
  "receipts": [
    {
      "status": "0x1",
      "cumulativeGasUsed": "0x43950",
      "logs": [],
      "logsBloom": "0x00000000000000000000000000000000000000000000000000000000000000000000000000000000000000000000000000000000000000000000000000000000000000000000000000000000000000000000000000000000000000000000000000000000000000000000000000000000000000000000000000000000000000000000000000000000000000000000000000000000000000000000000000000000000000000000000000000000000000000000000000000000000000000000000000000000000000000000000000000000000000000000000000000000000000000000000000000000000000000000000000000000000000000000000000000000",
      "type": "0x2",
      "transactionHash": "0x76becc4ff7aeff644c4654fa693745e6084a3791f3b87b53a56b88787bc2e8d1",
      "transactionIndex": "0x0",
      "blockHash": "0xeb396541faab4a240a5a6f483295738fa12c35381b2549df28fc816510ff72ad",
      "blockNumber": "0x5cfa59",
      "gasUsed": "0x43950",
      "effectiveGasPrice": "0x35ad5f119",
      "blobGasPrice": "0x1",
      "from": "0xf39fd6e51aad88f6f4ce6ab8827279cfffb92266",
      "to": "0x4e59b44847b379578588920ca78fbf26c0b4956c",
      "contractAddress": null,
      "root": "0x0000000000000000000000000000000000000000000000000000000000000000"
    },
    {
      "status": "0x1",
      "cumulativeGasUsed": "0xb21f",
      "logs": [
        {
          "address": "0x0000000071727de22e5e9d8baf0edac6f37da032",
          "topics": [
            "0x2da466a7b24304f47e87fa2e1e5a81b9831ce54fec19055ce277ca2f39ba42c4",
            "0x00000000000000000000000089439d0d4f12442318a614336096dd1d1c75533f"
          ],
          "data": "0x0000000000000000000000000000000000000000000000000de0b6b3a7640000",
          "blockHash": "0xc267993bd5d24d55ad55c8407badd92e6aaf8074ab386571669bc1d8e49dd3b7",
          "blockNumber": "0x5cfa5a",
          "blockTimestamp": "0x6669c7f3",
          "transactionHash": "0xa67af46d284cbd209293a86cf6c0b4f98a27f4829448e2b3b79ef5027e2e4ddd",
          "transactionIndex": "0x0",
          "logIndex": "0x0",
          "removed": false
        }
      ],
      "logsBloom": "0x00000000000000000000000000000000000000000000000000000000000002000000000000000000000000000000000000000000000000000000000000000000000000000004000000000000000000000040000000000000000000000002200000000000000800000000000000000000000000000000000000000000000200000000000000000000000000000000000000000000000000000000000000000000000000000000000000000000000000000000000000000000000000000000000000000000000000400000000000000000000000000000000000000000000000000040000000000000000000000000000000000000000000000000000000000000",
      "type": "0x2",
      "transactionHash": "0xa67af46d284cbd209293a86cf6c0b4f98a27f4829448e2b3b79ef5027e2e4ddd",
      "transactionIndex": "0x0",
      "blockHash": "0xc267993bd5d24d55ad55c8407badd92e6aaf8074ab386571669bc1d8e49dd3b7",
      "blockNumber": "0x5cfa5a",
      "gasUsed": "0xb21f",
      "effectiveGasPrice": "0x2f8c686b9",
      "blobGasPrice": "0x1",
      "from": "0xf39fd6e51aad88f6f4ce6ab8827279cfffb92266",
      "to": "0x0000000071727de22e5e9d8baf0edac6f37da032",
      "contractAddress": null,
      "root": "0x0000000000000000000000000000000000000000000000000000000000000000"
    }
  ],
  "libraries": [],
  "pending": [],
  "returns": {},
  "timestamp": 1737896065,
  "chain": 11155111,
  "commit": "b0c1882"
}