{
  "transactions": [
    {
      "hash": "0x436be9772d59df4e4aaca532efbc1250a081ee0ad6d06a5feefa9775720f7fad",
      "transactionType": "CREATE2",
      "contractName": "Demo2",
      "contractAddress": "0x3f10228b61909603c0120297bce4d9ada9a9825d",
      "function": null,
      "arguments": null,
      "transaction": {
        "from": "0xf39fd6e51aad88f6f4ce6ab8827279cfffb92266",
        "to": "0x4e59b44847b379578588920ca78fbf26c0b4956c",
        "gas": "0x5bbcf",
        "value": "0x0",
        "input": "0x00000000000000000000000000000000000000000000000000000000000000006080604052348015600e575f5ffd5b506103f18061001c5f395ff3fe608060405234801561000f575f5ffd5b5060043610610055575f3560e01c8063013c5f391461005957806319822f7c14610063578063b0d691fe14610089578063e2b6c0bc146100b3578063fc9c8d39146100c5575b5f5ffd5b6100616100d8565b005b610076610071366004610322565b610163565b6040519081526020015b60405180910390f35b6f71727de22e5e9d8baf0edac6f37da0325b6040516001600160a01b039091168152602001610080565b5f5461009b906001600160a01b031681565b60015461009b906001600160a01b031681565b7f41a2efc794119f946ab405955f96dacdfa298d25a3ae81c9a8cc1dea5771a900546001600160a01b03166101205760405163d92e233d60e01b815260040160405180910390fd5b7f41a2efc794119f946ab405955f96dacdfa298d25a3ae81c9a8cc1dea5771a90054600180546001600160a01b0319166001600160a01b03909216919091179055565b5f336f71727de22e5e9d8baf0edac6f37da03214610194576040516306facdbd60e21b815260040160405180910390fd5b815f6101c4856020527b19457468657265756d205369676e6564204d6573736167653a0a33325f52603c60042090565b90505f610212826101d96101008a018a610371565b8080601f0160208091040260200160405190810160405280939291908181526020018383808284375f9201919091525061029692505050565b90506001600160a01b03811661023b5760405163d92e233d60e01b815260040160405180910390fd5b7f41a2efc794119f946ab405955f96dacdfa298d25a3ae81c9a8cc1dea5771a90080546001600160a01b0319166001600160a01b0392909216919091179055505f9150801561028e575f385f3884335af1505b509392505050565b5f6040518251604081146102b257604181146102d3575061030e565b604084015160ff81901c601b016020526001600160ff1b03166060526102e6565b60608401515f1a60205260408401516060525b50835f5260208301516040526020600160805f60015afa5191505f606052806040523d61031b575b638baa579f5f526004601cfd5b5092915050565b5f5f5f60608486031215610334575f5ffd5b833567ffffffffffffffff81111561034a575f5ffd5b8401610120818703121561035c575f5ffd5b95602085013595506040909401359392505050565b5f5f8335601e19843603018112610386575f5ffd5b83018035915067ffffffffffffffff8211156103a0575f5ffd5b6020019150368190038213156103b4575f5ffd5b925092905056fea26469706673582212202ee83c31280433b37a08ad8a671380f14c876fefc49a7d240fb0f022e34eae0164736f6c634300081c0033",
        "nonce": "0x20e3",
        "chainId": "0xaa36a7"
      },
      "additionalContracts": [],
      "isFixedGasLimit": false
    },
    {
      "hash": "0xb3f7765bcd42089b29f0592ab98e4bcaefe38b617565d5cdd112789290d18254",
      "transactionType": "CALL",
      "contractName": null,
      "contractAddress": "0x0000000071727de22e5e9d8baf0edac6f37da032",
      "function": "depositTo(address)",
      "arguments": [
        "0x3F10228b61909603C0120297Bce4D9ada9A9825d"
      ],
      "transaction": {
        "from": "0xf39fd6e51aad88f6f4ce6ab8827279cfffb92266",
        "to": "0x0000000071727de22e5e9d8baf0edac6f37da032",
        "gas": "0xf606",
        "value": "0xde0b6b3a7640000",
        "input": "0xb760faf90000000000000000000000003f10228b61909603c0120297bce4d9ada9a9825d",
        "nonce": "0x20e4",
        "chainId": "0xaa36a7"
      },
      "additionalContracts": [],
      "isFixedGasLimit": false
    }
  ],
  "receipts": [
    {
      "status": "0x1",
      "cumulativeGasUsed": "0x426ac",
      "logs": [],
      "logsBloom": "0x00000000000000000000000000000000000000000000000000000000000000000000000000000000000000000000000000000000000000000000000000000000000000000000000000000000000000000000000000000000000000000000000000000000000000000000000000000000000000000000000000000000000000000000000000000000000000000000000000000000000000000000000000000000000000000000000000000000000000000000000000000000000000000000000000000000000000000000000000000000000000000000000000000000000000000000000000000000000000000000000000000000000000000000000000000000",
      "type": "0x2",
      "transactionHash": "0x436be9772d59df4e4aaca532efbc1250a081ee0ad6d06a5feefa9775720f7fad",
      "transactionIndex": "0x0",
      "blockHash": "0x153cd518dbbb495c77a40ac994aa5cfa9c57aab815717c3782b17999b8e368a0",
      "blockNumber": "0x5cfa56",
      "gasUsed": "0x426ac",
      "effectiveGasPrice": "0x4df93d44e",
      "blobGasPrice": "0x1",
      "from": "0xf39fd6e51aad88f6f4ce6ab8827279cfffb92266",
      "to": "0x4e59b44847b379578588920ca78fbf26c0b4956c",
      "contractAddress": null,
      "root": "0x0000000000000000000000000000000000000000000000000000000000000000"
    },
    {
      "status": "0x1",
      "cumulativeGasUsed": "0xb21f",
      "logs": [
        {
          "address": "0x0000000071727de22e5e9d8baf0edac6f37da032",
          "topics": [
            "0x2da466a7b24304f47e87fa2e1e5a81b9831ce54fec19055ce277ca2f39ba42c4",
            "0x0000000000000000000000003f10228b61909603c0120297bce4d9ada9a9825d"
          ],
          "data": "0x0000000000000000000000000000000000000000000000000de0b6b3a7640000",
          "blockHash": "0x6a9d4235a85bec2cf15394561e0a53bb03b728aa5ad023534cc9b2ed97663869",
          "blockNumber": "0x5cfa57",
          "blockTimestamp": "0x6669c79f",
          "transactionHash": "0xb3f7765bcd42089b29f0592ab98e4bcaefe38b617565d5cdd112789290d18254",
          "transactionIndex": "0x0",
          "logIndex": "0x0",
          "removed": false
        }
      ],
      "logsBloom": "0x00000000000000000000000000000000000000000000000000000000000000000000000000000000000000000000000000000000000000000000000000000000000000000000000000000000000000000040000000000000000000000000200000000000000800000000000000100000000000000000000000000000000200000000000000000000000000000000000000000000000000000000000000000000000000000000000000000000000000000000000000000000000000000000000000000000200000400000000000000000000000000000000000200000000000000040000000000000000000000000000000000000000000000000000000000000",
      "type": "0x2",
      "transactionHash": "0xb3f7765bcd42089b29f0592ab98e4bcaefe38b617565d5cdd112789290d18254",
      "transactionIndex": "0x0",
      "blockHash": "0x6a9d4235a85bec2cf15394561e0a53bb03b728aa5ad023534cc9b2ed97663869",
      "blockNumber": "0x5cfa57",
      "gasUsed": "0xb21f",
      "effectiveGasPrice": "0x44dc626de",
      "blobGasPrice": "0x1",
      "from": "0xf39fd6e51aad88f6f4ce6ab8827279cfffb92266",
      "to": "0x0000000071727de22e5e9d8baf0edac6f37da032",
      "contractAddress": null,
      "root": "0x0000000000000000000000000000000000000000000000000000000000000000"
    }
  ],
  "libraries": [],
  "pending": [],
  "returns": {},
  "timestamp": 1737895981,
  "chain": 11155111,
  "commit": "b0c1882"
}