{
  "transactions": [
    {
      "hash": "0x6086200a5be8d4f26cd32003a151837821aec59c53d39da43265bd6d5ed3b199",
      "transactionType": "CREATE2",
      "contractName": "Demo2",
      "contractAddress": "0x6e322faed85deefbcf3dd086ee86c56cc28a95b7",
      "function": null,
      "arguments": null,
      "transaction": {
        "from": "0xf39fd6e51aad88f6f4ce6ab8827279cfffb92266",
        "to": "0x4e59b44847b379578588920ca78fbf26c0b4956c",
        "gas": "0x56a00",
        "value": "0x0",
        "input": "0x00000000000000000000000000000000000000000000000000000000000000006080604052348015600e575f5ffd5b506103698061001c5f395ff3fe608060405234801561000f575f5ffd5b5060043610610055575f3560e01c8063013c5f391461005957806319822f7c14610063578063b0d691fe14610089578063e2b6c0bc146100b3578063fc9c8d39146100c5575b5f5ffd5b6100616100d8565b005b61007661007136600461029a565b610123565b6040519081526020015b60405180910390f35b6f71727de22e5e9d8baf0edac6f37da0325b6040516001600160a01b039091168152602001610080565b5f5461009b906001600160a01b031681565b60015461009b906001600160a01b031681565b5f546001600160a01b03166101005760405163d92e233d60e01b815260040160405180910390fd5b5f54600180546001600160a01b0319166001600160a01b03909216919091179055565b5f336f71727de22e5e9d8baf0edac6f37da03214610154576040516306facdbd60e21b815260040160405180910390fd5b815f610184856020527b19457468657265756d205369676e6564204d6573736167653a0a33325f52603c60042090565b90505f6101d2826101996101008a018a6102e9565b8080601f0160208091040260200160405190810160405280939291908181526020018383808284375f9201919091525061020e92505050565b5f80546001600160a01b039092166001600160a01b0319909216919091178155935050508015610206575f385f3884335af1505b509392505050565b5f60405182516040811461022a576041811461024b5750610286565b604084015160ff81901c601b016020526001600160ff1b031660605261025e565b60608401515f1a60205260408401516060525b50835f5260208301516040526020600160805f60015afa5191505f606052806040523d610293575b638baa579f5f526004601cfd5b5092915050565b5f5f5f606084860312156102ac575f5ffd5b833567ffffffffffffffff8111156102c2575f5ffd5b840161012081870312156102d4575f5ffd5b95602085013595506040909401359392505050565b5f5f8335601e198436030181126102fe575f5ffd5b83018035915067ffffffffffffffff821115610318575f5ffd5b60200191503681900382131561032c575f5ffd5b925092905056fea2646970667358221220e197b631240e3e3d84c92c876da7981ec68907f56c52805d2ce343866c6f238964736f6c634300081c0033",
        "nonce": "0x20f0",
        "chainId": "0xaa36a7"
      },
      "additionalContracts": [],
      "isFixedGasLimit": false
    },
    {
      "hash": "0x1fea68547cd62b242c9a0cf9b6594eaf77b6bd11d3c249de4e990ad5189b2ad8",
      "transactionType": "CALL",
      "contractName": null,
      "contractAddress": "0x0000000071727de22e5e9d8baf0edac6f37da032",
      "function": "depositTo(address)",
      "arguments": [
        "0x6E322faed85deEfBCF3Dd086eE86C56cC28a95B7"
      ],
      "transaction": {
        "from": "0xf39fd6e51aad88f6f4ce6ab8827279cfffb92266",
        "to": "0x0000000071727de22e5e9d8baf0edac6f37da032",
        "gas": "0xf606",
        "value": "0xde0b6b3a7640000",
        "input": "0xb760faf90000000000000000000000006e322faed85deefbcf3dd086ee86c56cc28a95b7",
        "nonce": "0x20f1",
        "chainId": "0xaa36a7"
      },
      "additionalContracts": [],
      "isFixedGasLimit": false
    }
  ],
  "receipts": [
    {
      "status": "0x1",
      "cumulativeGasUsed": "0x3b3b2",
      "logs": [],
      "logsBloom": "0x00000000000000000000000000000000000000000000000000000000000000000000000000000000000000000000000000000000000000000000000000000000000000000000000000000000000000000000000000000000000000000000000000000000000000000000000000000000000000000000000000000000000000000000000000000000000000000000000000000000000000000000000000000000000000000000000000000000000000000000000000000000000000000000000000000000000000000000000000000000000000000000000000000000000000000000000000000000000000000000000000000000000000000000000000000000",
      "type": "0x2",
      "transactionHash": "0x6086200a5be8d4f26cd32003a151837821aec59c53d39da43265bd6d5ed3b199",
      "transactionIndex": "0x0",
      "blockHash": "0x7447af6838a0b4dba5ef950bbb9ae194f1c1ea6c13977a82eff544e767746ee1",
      "blockNumber": "0x5cfa64",
      "gasUsed": "0x3b3b2",
      "effectiveGasPrice": "0xf68f8624",
      "blobGasPrice": "0x1",
      "from": "0xf39fd6e51aad88f6f4ce6ab8827279cfffb92266",
      "to": "0x4e59b44847b379578588920ca78fbf26c0b4956c",
      "contractAddress": null,
      "root": "0x0000000000000000000000000000000000000000000000000000000000000000"
    },
    {
      "status": "0x1",
      "cumulativeGasUsed": "0xb21f",
      "logs": [
        {
          "address": "0x0000000071727de22e5e9d8baf0edac6f37da032",
          "topics": [
            "0x2da466a7b24304f47e87fa2e1e5a81b9831ce54fec19055ce277ca2f39ba42c4",
            "0x0000000000000000000000006e322faed85deefbcf3dd086ee86c56cc28a95b7"
          ],
          "data": "0x0000000000000000000000000000000000000000000000000de0b6b3a7640000",
          "blockHash": "0x01cb27e50b78fa306c521eed209a7bcd2fc2d913380e5df67071d713c524ce21",
          "blockNumber": "0x5cfa65",
          "blockTimestamp": "0x6669ca3c",
          "transactionHash": "0x1fea68547cd62b242c9a0cf9b6594eaf77b6bd11d3c249de4e990ad5189b2ad8",
          "transactionIndex": "0x0",
          "logIndex": "0x0",
          "removed": false
        }
      ],
      "logsBloom": "0x00020000000000000000000000000000000000000000000000000000000000000000000000000000000000000000000000000000000000000000000000000000000000000000000000000000000000000040000000000008000000000000200000000000000800000000000000000000000000000000000000000000000200000000000000000000000000000000000000000000000000000000000000000000000000000000000000000000000000000000000000000000000000000000000000000000000000400000000000000000000000400000000000000000000000000040000000000000000000000000000000000000000000000000000000000000",
      "type": "0x2",
      "transactionHash": "0x1fea68547cd62b242c9a0cf9b6594eaf77b6bd11d3c249de4e990ad5189b2ad8",
      "transactionIndex": "0x0",
      "blockHash": "0x01cb27e50b78fa306c521eed209a7bcd2fc2d913380e5df67071d713c524ce21",
      "blockNumber": "0x5cfa65",
      "gasUsed": "0xb21f",
      "effectiveGasPrice": "0xdf91b1cf",
      "blobGasPrice": "0x1",
      "from": "0xf39fd6e51aad88f6f4ce6ab8827279cfffb92266",
      "to": "0x0000000071727de22e5e9d8baf0edac6f37da032",
      "contractAddress": null,
      "root": "0x0000000000000000000000000000000000000000000000000000000000000000"
    }
  ],
  "libraries": [],
  "pending": [],
  "returns": {},
  "timestamp": 1737896650,
  "chain": 11155111,
  "commit": "b0c1882"
}