{
  "transactions": [
    {
      "hash": "0xc63b83d7f1f006263fe6629e9c914b1d807c90db54c6ad4ceedfe42d7ecd885b",
      "transactionType": "CREATE2",
      "contractName": "Demo2",
      "contractAddress": "0x29c3f92623aa634f2d2dfde6c5afa0157d208096",
      "function": null,
      "arguments": null,
      "transaction": {
        "from": "0xf39fd6e51aad88f6f4ce6ab8827279cfffb92266",
        "to": "0x4e59b44847b379578588920ca78fbf26c0b4956c",
        "gas": "0x54a8f",
        "value": "0x0",
        "input": "0x00000000000000000000000000000000000000000000000000000000000000006080604052348015600e575f5ffd5b506103908061001c5f395ff3fe608060405234801561000f575f5ffd5b5060043610610055575f3560e01c8063013c5f391461005957806319822f7c14610063578063b0d691fe14610089578063e2b6c0bc146100b3578063fc9c8d39146100c5575b5f5ffd5b6100616100d8565b005b6100766100713660046102c1565b610123565b6040519081526020015b60405180910390f35b6f71727de22e5e9d8baf0edac6f37da0325b6040516001600160a01b039091168152602001610080565b5f5461009b906001600160a01b031681565b60015461009b906001600160a01b031681565b5f546001600160a01b03166101005760405163d92e233d60e01b815260040160405180910390fd5b5f54600180546001600160a01b0319166001600160a01b03909216919091179055565b5f336f71727de22e5e9d8baf0edac6f37da03214610154576040516306facdbd60e21b815260040160405180910390fd5b815f610184856020527b19457468657265756d205369676e6564204d6573736167653a0a33325f52603c60042090565b90505f6101d2826101996101008a018a610310565b8080601f0160208091040260200160405190810160405280939291908181526020018383808284375f9201919091525061023592505050565b90506001600160a01b0381166101fb5760405163d92e233d60e01b815260040160405180910390fd5b5f80546001600160a01b0319166001600160a01b0392909216919091178155925050801561022d575f385f3884335af1505b509392505050565b5f604051825160408114610251576041811461027257506102ad565b604084015160ff81901c601b016020526001600160ff1b0316606052610285565b60608401515f1a60205260408401516060525b50835f5260208301516040526020600160805f60015afa5191505f606052806040523d6102ba575b638baa579f5f526004601cfd5b5092915050565b5f5f5f606084860312156102d3575f5ffd5b833567ffffffffffffffff8111156102e9575f5ffd5b840161012081870312156102fb575f5ffd5b95602085013595506040909401359392505050565b5f5f8335601e19843603018112610325575f5ffd5b83018035915067ffffffffffffffff82111561033f575f5ffd5b602001915036819003821315610353575f5ffd5b925092905056fea26469706673582212202de573d7f1b779f9a8d254bd67823ad62ad2465d3bf3434921265d3f96d9cbb264736f6c634300081c0033",
        "nonce": "0x20e3",
        "chainId": "0xaa36a7"
      },
      "additionalContracts": [],
      "isFixedGasLimit": false
    },
    {
      "hash": "0x61769179c0a8ccee93c28d14932faa6cfc000eeea157e0b15feb46815cf1e908",
      "transactionType": "CALL",
      "contractName": null,
      "contractAddress": "0x0000000071727de22e5e9d8baf0edac6f37da032",
      "function": "depositTo(address)",
      "arguments": [
        "0x29c3f92623Aa634f2d2DFDe6c5aFa0157d208096"
      ],
      "transaction": {
        "from": "0xf39fd6e51aad88f6f4ce6ab8827279cfffb92266",
        "to": "0x0000000071727de22e5e9d8baf0edac6f37da032",
        "gas": "0xf606",
        "value": "0xde0b6b3a7640000",
        "input": "0xb760faf900000000000000000000000029c3f92623aa634f2d2dfde6c5afa0157d208096",
        "nonce": "0x20e4",
        "chainId": "0xaa36a7"
      },
      "additionalContracts": [],
      "isFixedGasLimit": false
    }
  ],
  "receipts": [
    {
      "status": "0x1",
      "cumulativeGasUsed": "0x3d4ae",
      "logs": [],
      "logsBloom": "0x00000000000000000000000000000000000000000000000000000000000000000000000000000000000000000000000000000000000000000000000000000000000000000000000000000000000000000000000000000000000000000000000000000000000000000000000000000000000000000000000000000000000000000000000000000000000000000000000000000000000000000000000000000000000000000000000000000000000000000000000000000000000000000000000000000000000000000000000000000000000000000000000000000000000000000000000000000000000000000000000000000000000000000000000000000000",
      "type": "0x2",
      "transactionHash": "0xc63b83d7f1f006263fe6629e9c914b1d807c90db54c6ad4ceedfe42d7ecd885b",
      "transactionIndex": "0x0",
      "blockHash": "0x8d26d92b6f4f3cb068358fd245489a0ee1ec2345f19efaef286f1e9b116e705b",
      "blockNumber": "0x5cfa56",
      "gasUsed": "0x3d4ae",
      "effectiveGasPrice": "0x4df93d44e",
      "blobGasPrice": "0x1",
      "from": "0xf39fd6e51aad88f6f4ce6ab8827279cfffb92266",
      "to": "0x4e59b44847b379578588920ca78fbf26c0b4956c",
      "contractAddress": null,
      "root": "0x0000000000000000000000000000000000000000000000000000000000000000"
    },
    {
      "status": "0x1",
      "cumulativeGasUsed": "0xb21f",
      "logs": [
        {
          "address": "0x0000000071727de22e5e9d8baf0edac6f37da032",
          "topics": [
            "0x2da466a7b24304f47e87fa2e1e5a81b9831ce54fec19055ce277ca2f39ba42c4",
            "0x00000000000000000000000029c3f92623aa634f2d2dfde6c5afa0157d208096"
          ],
          "data": "0x0000000000000000000000000000000000000000000000000de0b6b3a7640000",
          "blockHash": "0xf85f10c0278388187a953594103ba1c8e6ec3cb1e3f0534f85c1ddcaefcdde29",
          "blockNumber": "0x5cfa57",
          "blockTimestamp": "0x6669c786",
          "transactionHash": "0x61769179c0a8ccee93c28d14932faa6cfc000eeea157e0b15feb46815cf1e908",
          "transactionIndex": "0x0",
          "logIndex": "0x0",
          "removed": false
        }
      ],
      "logsBloom": "0x00000000000000000000000000000000000000000000000000000000000000000000000000000000000000000000000000000000000000000000000000000000000000000000000000000000000000000040000000000000000000000000200000000000000800000000000000000000000000000000000000000000000200000000000000000000000000000000000000000000000000000000000000000000000000000000000000000000000000000000000000000000000000000000000000000000000010400000000000008000000000000000000000000000000000000040000000000000000000000000000000000000000000040000000000000000",
      "type": "0x2",
      "transactionHash": "0x61769179c0a8ccee93c28d14932faa6cfc000eeea157e0b15feb46815cf1e908",
      "transactionIndex": "0x0",
      "blockHash": "0xf85f10c0278388187a953594103ba1c8e6ec3cb1e3f0534f85c1ddcaefcdde29",
      "blockNumber": "0x5cfa57",
      "gasUsed": "0xb21f",
      "effectiveGasPrice": "0x44d90f4bc",
      "blobGasPrice": "0x1",
      "from": "0xf39fd6e51aad88f6f4ce6ab8827279cfffb92266",
      "to": "0x0000000071727de22e5e9d8baf0edac6f37da032",
      "contractAddress": null,
      "root": "0x0000000000000000000000000000000000000000000000000000000000000000"
    }
  ],
  "libraries": [],
  "pending": [],
  "returns": {},
  "timestamp": 1737893660,
  "chain": 11155111,
  "commit": "b0c1882"
}