{
  "transactions": [
    {
      "hash": "0x069c9431b64c0bea2f7fd1e6ae1894e544a9e25e18e2e396d3029a1d2c10a175",
      "transactionType": "CREATE2",
      "contractName": "Demo2",
      "contractAddress": "0x10d2d8d83d8344c2e51b288848dd03022facdff1",
      "function": null,
      "arguments": null,
      "transaction": {
        "from": "0xf39fd6e51aad88f6f4ce6ab8827279cfffb92266",
        "to": "0x4e59b44847b379578588920ca78fbf26c0b4956c",
        "gas": "0x59668",
        "value": "0x0",
        "input": "0x00000000000000000000000000000000000000000000000000000000000000006080604052348015600e575f5ffd5b506103d18061001c5f395ff3fe608060405234801561000f575f5ffd5b5060043610610055575f3560e01c8063013c5f391461005957806319822f7c14610063578063b0d691fe14610089578063e2b6c0bc146100b3578063fc9c8d39146100c5575b5f5ffd5b6100616100d8565b005b610076610071366004610302565b610143565b6040519081526020015b60405180910390f35b6f71727de22e5e9d8baf0edac6f37da0325b6040516001600160a01b039091168152602001610080565b5f5461009b906001600160a01b031681565b60015461009b906001600160a01b031681565b5f546001600160a01b03166101005760405163d92e233d60e01b815260040160405180910390fd5b7f41a2efc794119f946ab405955f96dacdfa298d25a3ae81c9a8cc1dea5771a90054600180546001600160a01b0319166001600160a01b03909216919091179055565b5f336f71727de22e5e9d8baf0edac6f37da03214610174576040516306facdbd60e21b815260040160405180910390fd5b815f6101a4856020527b19457468657265756d205369676e6564204d6573736167653a0a33325f52603c60042090565b90505f6101f2826101b96101008a018a610351565b8080601f0160208091040260200160405190810160405280939291908181526020018383808284375f9201919091525061027692505050565b90506001600160a01b03811661021b5760405163d92e233d60e01b815260040160405180910390fd5b7f41a2efc794119f946ab405955f96dacdfa298d25a3ae81c9a8cc1dea5771a90080546001600160a01b0319166001600160a01b0392909216919091179055505f9150801561026e575f385f3884335af1505b509392505050565b5f60405182516040811461029257604181146102b357506102ee565b604084015160ff81901c601b016020526001600160ff1b03166060526102c6565b60608401515f1a60205260408401516060525b50835f5260208301516040526020600160805f60015afa5191505f606052806040523d6102fb575b638baa579f5f526004601cfd5b5092915050565b5f5f5f60608486031215610314575f5ffd5b833567ffffffffffffffff81111561032a575f5ffd5b8401610120818703121561033c575f5ffd5b95602085013595506040909401359392505050565b5f5f8335601e19843603018112610366575f5ffd5b83018035915067ffffffffffffffff821115610380575f5ffd5b602001915036819003821315610394575f5ffd5b925092905056fea26469706673582212201fbc33426030e4c3f6ad2349b39e9880f035b5b98b0587fd2443cf3c0456fdb664736f6c634300081c0033",
        "nonce": "0x20e7",
        "chainId": "0xaa36a7"
      },
      "additionalContracts": [],
      "isFixedGasLimit": false
    },
    {
      "hash": "0x46feb1d22b6d9f0bfd5556e30cb290f947021e7357fbd2a7ce4b27434a1264dd",
      "transactionType": "CALL",
      "contractName": null,
      "contractAddress": "0x0000000071727de22e5e9d8baf0edac6f37da032",
      "function": "depositTo(address)",
      "arguments": [
        "0x10D2d8D83D8344c2E51B288848Dd03022fAcdff1"
      ],
      "transaction": {
        "from": "0xf39fd6e51aad88f6f4ce6ab8827279cfffb92266",
        "to": "0x0000000071727de22e5e9d8baf0edac6f37da032",
        "gas": "0xf606",
        "value": "0xde0b6b3a7640000",
        "input": "0xb760faf900000000000000000000000010d2d8d83d8344c2e51b288848dd03022facdff1",
        "nonce": "0x20e8",
        "chainId": "0xaa36a7"
      },
      "additionalContracts": [],
      "isFixedGasLimit": false
    }
  ],
  "receipts": [
    {
      "status": "0x1",
      "cumulativeGasUsed": "0x40b97",
      "logs": [],
      "logsBloom": "0x00000000000000000000000000000000000000000000000000000000000000000000000000000000000000000000000000000000000000000000000000000000000000000000000000000000000000000000000000000000000000000000000000000000000000000000000000000000000000000000000000000000000000000000000000000000000000000000000000000000000000000000000000000000000000000000000000000000000000000000000000000000000000000000000000000000000000000000000000000000000000000000000000000000000000000000000000000000000000000000000000000000000000000000000000000000",
      "type": "0x2",
      "transactionHash": "0x069c9431b64c0bea2f7fd1e6ae1894e544a9e25e18e2e396d3029a1d2c10a175",
      "transactionIndex": "0x0",
      "blockHash": "0x6b45a9897f3973e37be0bd36d5b5ac26feb65d659471b63f93bdd4451243df2c",
      "blockNumber": "0x5cfa60",
      "gasUsed": "0x40b97",
      "effectiveGasPrice": "0x176f4b105",
      "blobGasPrice": "0x1",
      "from": "0xf39fd6e51aad88f6f4ce6ab8827279cfffb92266",
      "to": "0x4e59b44847b379578588920ca78fbf26c0b4956c",
      "contractAddress": null,
      "root": "0x0000000000000000000000000000000000000000000000000000000000000000"
    },
    {
      "status": "0x1",
      "cumulativeGasUsed": "0xb21f",
      "logs": [
        {
          "address": "0x0000000071727de22e5e9d8baf0edac6f37da032",
          "topics": [
            "0x2da466a7b24304f47e87fa2e1e5a81b9831ce54fec19055ce277ca2f39ba42c4",
            "0x00000000000000000000000010d2d8d83d8344c2e51b288848dd03022facdff1"
          ],
          "data": "0x0000000000000000000000000000000000000000000000000de0b6b3a7640000",
          "blockHash": "0x4130207b1f0521c02d0c56078b4c2be9dbcf4bf64d7e065d6c4e8a057c22f932",
          "blockNumber": "0x5cfa61",
          "blockTimestamp": "0x6669cb4f",
          "transactionHash": "0x46feb1d22b6d9f0bfd5556e30cb290f947021e7357fbd2a7ce4b27434a1264dd",
          "transactionIndex": "0x0",
          "logIndex": "0x0",
          "removed": false
        }
      ],
      "logsBloom": "0x00000000000000000000000000000000000000000000000000000000000000000400000010000000000000000000000000000000000000000000000000000000000000000000000000000000000000000040000000000000000000000800200000000000000800000000000000000000000000000000000000000000000200000000000000000000000000000000000000000000000000000000000000000000000000000000000000000000000000000000000000000000000000000000000000000000000000400000000000000000000000000000000000000000000000000040000000000000000000000000000000000000000000000000000000000000",
      "type": "0x2",
      "transactionHash": "0x46feb1d22b6d9f0bfd5556e30cb290f947021e7357fbd2a7ce4b27434a1264dd",
      "transactionIndex": "0x0",
      "blockHash": "0x4130207b1f0521c02d0c56078b4c2be9dbcf4bf64d7e065d6c4e8a057c22f932",
      "blockNumber": "0x5cfa61",
      "gasUsed": "0xb21f",
      "effectiveGasPrice": "0x1503bce91",
      "blobGasPrice": "0x1",
      "from": "0xf39fd6e51aad88f6f4ce6ab8827279cfffb92266",
      "to": "0x0000000071727de22e5e9d8baf0edac6f37da032",
      "contractAddress": null,
      "root": "0x0000000000000000000000000000000000000000000000000000000000000000"
    }
  ],
  "libraries": [],
  "pending": [],
  "returns": {},
  "timestamp": 1737894629,
  "chain": 11155111,
  "commit": "b0c1882"
}