{
  "transactions": [
    {
      "hash": "0x1d256d3cca8576bfb034956fe03562f28a7bd6f584da4f7674c3b46a5d00fb00",
      "transactionType": "CREATE2",
      "contractName": "Demo2",
      "contractAddress": "0xbdfc7d030a7689787c63c8fbefc4052e07308876",
      "function": null,
      "arguments": null,
      "transaction": {
        "from": "0xf39fd6e51aad88f6f4ce6ab8827279cfffb92266",
        "to": "0x4e59b44847b379578588920ca78fbf26c0b4956c",
        "gas": "0x54a8f",
        "value": "0x0",
        "input": "0x00000000000000000000000000000000000000000000000000000000000000006080604052348015600e575f5ffd5b506103908061001c5f395ff3fe608060405234801561000f575f5ffd5b5060043610610055575f3560e01c8063013c5f391461005957806319822f7c14610063578063b0d691fe14610089578063e2b6c0bc146100b3578063fc9c8d39146100c5575b5f5ffd5b6100616100d8565b005b6100766100713660046102c1565b610123565b6040519081526020015b60405180910390f35b6f71727de22e5e9d8baf0edac6f37da0325b6040516001600160a01b039091168152602001610080565b5f5461009b906001600160a01b031681565b60015461009b906001600160a01b031681565b5f546001600160a01b03166101005760405163d92e233d60e01b815260040160405180910390fd5b5f54600180546001600160a01b0319166001600160a01b03909216919091179055565b5f336f71727de22e5e9d8baf0edac6f37da03214610154576040516306facdbd60e21b815260040160405180910390fd5b815f610184856020527b19457468657265756d205369676e6564204d6573736167653a0a33325f52603c60042090565b90505f6101d2826101996101008a018a610310565b8080601f0160208091040260200160405190810160405280939291908181526020018383808284375f9201919091525061023592505050565b90506001600160a01b0381166101fb57604051632057875960e21b815260040160405180910390fd5b5f80546001600160a01b0319166001600160a01b0392909216919091178155925050801561022d575f385f3884335af1505b509392505050565b5f604051825160408114610251576041811461027257506102ad565b604084015160ff81901c601b016020526001600160ff1b0316606052610285565b60608401515f1a60205260408401516060525b50835f5260208301516040526020600160805f60015afa5191505f606052806040523d6102ba575b638baa579f5f526004601cfd5b5092915050565b5f5f5f606084860312156102d3575f5ffd5b833567ffffffffffffffff8111156102e9575f5ffd5b840161012081870312156102fb575f5ffd5b95602085013595506040909401359392505050565b5f5f8335601e19843603018112610325575f5ffd5b83018035915067ffffffffffffffff82111561033f575f5ffd5b602001915036819003821315610353575f5ffd5b925092905056fea26469706673582212209e372ea24dceeba47bdfdb508e9f2ef0a0b44d17bc811f1065eeb94748696d8764736f6c634300081c0033",
        "nonce": "0x20ee",
        "chainId": "0xaa36a7"
      },
      "additionalContracts": [],
      "isFixedGasLimit": false
    },
    {
      "hash": "0x5a962a3e550878c3dcda4c8d56a7c3deaf54173664bc07454337b4f68f6c0494",
      "transactionType": "CALL",
      "contractName": null,
      "contractAddress": "0x0000000071727de22e5e9d8baf0edac6f37da032",
      "function": "depositTo(address)",
      "arguments": [
        "0xBDFC7d030a7689787c63C8fbeFC4052e07308876"
      ],
      "transaction": {
        "from": "0xf39fd6e51aad88f6f4ce6ab8827279cfffb92266",
        "to": "0x0000000071727de22e5e9d8baf0edac6f37da032",
        "gas": "0xf606",
        "value": "0xde0b6b3a7640000",
        "input": "0xb760faf9000000000000000000000000bdfc7d030a7689787c63c8fbefc4052e07308876",
        "nonce": "0x20ef",
        "chainId": "0xaa36a7"
      },
      "additionalContracts": [],
      "isFixedGasLimit": false
    }
  ],
  "receipts": [
    {
      "status": "0x1",
      "cumulativeGasUsed": "0x3d4ae",
      "logs": [],
      "logsBloom": "0x00000000000000000000000000000000000000000000000000000000000000000000000000000000000000000000000000000000000000000000000000000000000000000000000000000000000000000000000000000000000000000000000000000000000000000000000000000000000000000000000000000000000000000000000000000000000000000000000000000000000000000000000000000000000000000000000000000000000000000000000000000000000000000000000000000000000000000000000000000000000000000000000000000000000000000000000000000000000000000000000000000000000000000000000000000000",
      "type": "0x2",
      "transactionHash": "0x1d256d3cca8576bfb034956fe03562f28a7bd6f584da4f7674c3b46a5d00fb00",
      "transactionIndex": "0x0",
      "blockHash": "0x0d1ebadc7038aeb225e925199ea43c9f1ba04c95314df111f25f769fc6e3883b",
      "blockNumber": "0x5cfa61",
      "gasUsed": "0x3d4ae",
      "effectiveGasPrice": "0x1518cee22",
      "blobGasPrice": "0x1",
      "from": "0xf39fd6e51aad88f6f4ce6ab8827279cfffb92266",
      "to": "0x4e59b44847b379578588920ca78fbf26c0b4956c",
      "contractAddress": null,
      "root": "0x0000000000000000000000000000000000000000000000000000000000000000"
    },
    {
      "status": "0x1",
      "cumulativeGasUsed": "0xb21f",
      "logs": [
        {
          "address": "0x0000000071727de22e5e9d8baf0edac6f37da032",
          "topics": [
            "0x2da466a7b24304f47e87fa2e1e5a81b9831ce54fec19055ce277ca2f39ba42c4",
            "0x000000000000000000000000bdfc7d030a7689787c63c8fbefc4052e07308876"
          ],
          "data": "0x0000000000000000000000000000000000000000000000000de0b6b3a7640000",
          "blockHash": "0xf3db83eb273b75d9770919f6c1a3e28bd68e9ce2bee52472f78751f96f715f9a",
          "blockNumber": "0x5cfa62",
          "blockTimestamp": "0x6669c9e8",
          "transactionHash": "0x5a962a3e550878c3dcda4c8d56a7c3deaf54173664bc07454337b4f68f6c0494",
          "transactionIndex": "0x0",
          "logIndex": "0x0",
          "removed": false
        }
      ],
      "logsBloom": "0x00000000000000000000000000000000000000000000000000000000000000000000000000000004000000000000000000000000000000000000000000000000000000000000000000000000000000000040000000000000000000000000200000000000000800000000200000000000000000000000000000000000000200000000000000000000000000000000000000000000000000000000000000000000000000000000000000000000000000000000000000000000000000000000000000000000000000400000000000000000000000000000000000000000000000000040000000000000000000000000000000000000000000000000000000004000",
      "type": "0x2",
      "transactionHash": "0x5a962a3e550878c3dcda4c8d56a7c3deaf54173664bc07454337b4f68f6c0494",
      "transactionIndex": "0x0",
      "blockHash": "0xf3db83eb273b75d9770919f6c1a3e28bd68e9ce2bee52472f78751f96f715f9a",
      "blockNumber": "0x5cfa62",
      "gasUsed": "0xb21f",
      "effectiveGasPrice": "0x12f63867c",
      "blobGasPrice": "0x1",
      "from": "0xf39fd6e51aad88f6f4ce6ab8827279cfffb92266",
      "to": "0x0000000071727de22e5e9d8baf0edac6f37da032",
      "contractAddress": null,
      "root": "0x0000000000000000000000000000000000000000000000000000000000000000"
    }
  ],
  "libraries": [],
  "pending": [],
  "returns": {},
  "timestamp": 1737896566,
  "chain": 11155111,
  "commit": "b0c1882"
}