{
  "transactions": [
    {
      "hash": "0xe6ff8f3636f0adc25abcbf30d5f20512fab62fb66501ba581825be07c10d729d",
      "transactionType": "CREATE2",
      "contractName": "Demo2",
      "contractAddress": "0x9316e3f56e5502c32ff414b60a16160dee3c7f6a",
      "function": null,
      "arguments": null,
      "transaction": {
        "from": "0xf39fd6e51aad88f6f4ce6ab8827279cfffb92266",
        "to": "0x4e59b44847b379578588920ca78fbf26c0b4956c",
        "gas": "0x5bce8",
        "value": "0x0",
        "input": "0x00000000000000000000000000000000000000000000000000000000000000006080604052348015600e575f5ffd5b506103ac8061001c5f395ff3fe608060405234801561000f575f5ffd5b5060043610610055575f3560e01c8063013c5f391461005957806319822f7c14610063578063b0d691fe14610089578063e2b6c0bc146100b3578063fc9c8d39146100c5575b5f5ffd5b6100616100d8565b005b6100766100713660046102dd565b610123565b6040519081526020015b60405180910390f35b6f71727de22e5e9d8baf0edac6f37da0325b6040516001600160a01b039091168152602001610080565b5f5461009b906001600160a01b031681565b60015461009b906001600160a01b031681565b5f546001600160a01b03166101005760405163d92e233d60e01b815260040160405180910390fd5b5f54600180546001600160a01b0319166001600160a01b03909216919091179055565b5f336f71727de22e5e9d8baf0edac6f37da03214610154576040516306facdbd60e21b815260040160405180910390fd5b815f610184856020527b19457468657265756d205369676e6564204d6573736167653a0a33325f52603c60042090565b90505f6101d2826101996101008a018a61032c565b8080601f0160208091040260200160405190810160405280939291908181526020018383808284375f9201919091525061025192505050565b90506001600160a01b03811673f39fd6e51aad88f6f4ce6ab8827279cfffb9226603610220575f80546001600160a01b0319166001600160a01b039290921691909117815592506102399050565b604051632057875960e21b815260040160405180910390fd5b8015610249575f385f3884335af1505b509392505050565b5f60405182516040811461026d576041811461028e57506102c9565b604084015160ff81901c601b016020526001600160ff1b03166060526102a1565b60608401515f1a60205260408401516060525b50835f5260208301516040526020600160805f60015afa5191505f606052806040523d6102d6575b638baa579f5f526004601cfd5b5092915050565b5f5f5f606084860312156102ef575f5ffd5b833567ffffffffffffffff811115610305575f5ffd5b84016101208187031215610317575f5ffd5b95602085013595506040909401359392505050565b5f5f8335601e19843603018112610341575f5ffd5b83018035915067ffffffffffffffff82111561035b575f5ffd5b60200191503681900382131561036f575f5ffd5b925092905056fea26469706673582212205d77bbf663d75910a1ad74ccf0cf2951b08167fcd2848c5e78db6df2d0a807a464736f6c634300081c0033",
        "nonce": "0x20e5",
        "chainId": "0xaa36a7"
      },
      "additionalContracts": [],
      "isFixedGasLimit": false
    },
    {
      "hash": "0xeb0f24e4e69f600e99fb6d9051779581bf5e861cf95403f77b7511f1ec8d3a1f",
      "transactionType": "CALL",
      "contractName": null,
      "contractAddress": "0x0000000071727de22e5e9d8baf0edac6f37da032",
      "function": "depositTo(address)",
      "arguments": [
        "0x9316e3f56e5502C32ff414B60A16160DeE3C7F6a"
      ],
      "transaction": {
        "from": "0xf39fd6e51aad88f6f4ce6ab8827279cfffb92266",
        "to": "0x0000000071727de22e5e9d8baf0edac6f37da032",
        "gas": "0xf606",
        "value": "0xde0b6b3a7640000",
        "input": "0xb760faf90000000000000000000000009316e3f56e5502c32ff414b60a16160dee3c7f6a",
        "nonce": "0x20e6",
        "chainId": "0xaa36a7"
      },
      "additionalContracts": [],
      "isFixedGasLimit": false
    }
  ],
  "receipts": [
    {
      "status": "0x1",
      "cumulativeGasUsed": "0x3ec62",
      "logs": [],
      "logsBloom": "0x00000000000000000000000000000000000000000000000000000000000000000000000000000000000000000000000000000000000000000000000000000000000000000000000000000000000000000000000000000000000000000000000000000000000000000000000000000000000000000000000000000000000000000000000000000000000000000000000000000000000000000000000000000000000000000000000000000000000000000000000000000000000000000000000000000000000000000000000000000000000000000000000000000000000000000000000000000000000000000000000000000000000000000000000000000000",
      "type": "0x2",
      "transactionHash": "0xe6ff8f3636f0adc25abcbf30d5f20512fab62fb66501ba581825be07c10d729d",
      "transactionIndex": "0x0",
      "blockHash": "0x39240eb8d13b0a49f5e1348bc71aa1046e482fe291f5ac6d026d2048d74048fd",
      "blockNumber": "0x5cfa58",
      "gasUsed": "0x3ec62",
      "effectiveGasPrice": "0x3cbbc5640",
      "blobGasPrice": "0x1",
      "from": "0xf39fd6e51aad88f6f4ce6ab8827279cfffb92266",
      "to": "0x4e59b44847b379578588920ca78fbf26c0b4956c",
      "contractAddress": null,
      "root": "0x0000000000000000000000000000000000000000000000000000000000000000"
    },
    {
      "status": "0x1",
      "cumulativeGasUsed": "0xb21f",
      "logs": [
        {
          "address": "0x0000000071727de22e5e9d8baf0edac6f37da032",
          "topics": [
            "0x2da466a7b24304f47e87fa2e1e5a81b9831ce54fec19055ce277ca2f39ba42c4",
            "0x0000000000000000000000009316e3f56e5502c32ff414b60a16160dee3c7f6a"
          ],
          "data": "0x0000000000000000000000000000000000000000000000000de0b6b3a7640000",
          "blockHash": "0xb443aae53f1ed0285dbb1f00994a98375ed1ddad4ddcac0a321ba7d17186c7d7",
          "blockNumber": "0x5cfa59",
          "blockTimestamp": "0x6669ca4d",
          "transactionHash": "0xeb0f24e4e69f600e99fb6d9051779581bf5e861cf95403f77b7511f1ec8d3a1f",
          "transactionIndex": "0x0",
          "logIndex": "0x0",
          "removed": false
        }
      ],
      "logsBloom": "0x00000000000000000000000000000000000000000000000000000000000000000000000000000000000000000000000000000000000000000000000000000000000000000000000000000000000000000040000000000400000000000000200000000000000800000000000000000000000000000000000000000000000200000000000000000000000000000000000000000000000000000000000000000005000000000000000000000000000000000000000000000000000000000000000000000000000000400000000000000000000000000000000000000000000000000040000000000000000000000000000000000000000000000000000000000000",
      "type": "0x2",
      "transactionHash": "0xeb0f24e4e69f600e99fb6d9051779581bf5e861cf95403f77b7511f1ec8d3a1f",
      "transactionIndex": "0x0",
      "blockHash": "0xb443aae53f1ed0285dbb1f00994a98375ed1ddad4ddcac0a321ba7d17186c7d7",
      "blockNumber": "0x5cfa59",
      "gasUsed": "0xb21f",
      "effectiveGasPrice": "0x35bac78ce",
      "blobGasPrice": "0x1",
      "from": "0xf39fd6e51aad88f6f4ce6ab8827279cfffb92266",
      "to": "0x0000000071727de22e5e9d8baf0edac6f37da032",
      "contractAddress": null,
      "root": "0x0000000000000000000000000000000000000000000000000000000000000000"
    }
  ],
  "libraries": [],
  "pending": [],
  "returns": {},
  "timestamp": 1737898087,
  "chain": 11155111,
  "commit": "b843b43"
}